{
  "contractName": "AdminProtocol",
  "abi": [
    {
      "inputs": [
        {
          "internalType": "address",
          "name": "_USDT",
          "type": "address"
        },
        {
          "internalType": "address",
          "name": "_token",
          "type": "address"
        }
      ],
      "stateMutability": "nonpayable",
      "type": "constructor"
    },
    {
      "anonymous": false,
      "inputs": [
        {
          "indexed": true,
          "internalType": "address",
          "name": "previousOwner",
          "type": "address"
        },
        {
          "indexed": true,
          "internalType": "address",
          "name": "newOwner",
          "type": "address"
        }
      ],
      "name": "OwnershipTransferred",
      "type": "event"
    },
    {
      "inputs": [],
      "name": "owner",
      "outputs": [
        {
          "internalType": "address",
          "name": "",
          "type": "address"
        }
      ],
      "stateMutability": "view",
      "type": "function"
    },
    {
      "inputs": [],
      "name": "renounceOwnership",
      "outputs": [],
      "stateMutability": "nonpayable",
      "type": "function"
    },
    {
      "inputs": [
        {
          "internalType": "address",
          "name": "newOwner",
          "type": "address"
        }
      ],
      "name": "transferOwnership",
      "outputs": [],
      "stateMutability": "nonpayable",
      "type": "function"
    },
    {
      "inputs": [
        {
          "internalType": "uint256",
          "name": "_amount",
          "type": "uint256"
        },
        {
          "internalType": "uint256",
          "name": "_idStore",
          "type": "uint256"
        }
      ],
      "name": "updateAddressesAllowedToMint",
      "outputs": [],
      "stateMutability": "nonpayable",
      "type": "function"
    },
    {
      "inputs": [
        {
          "internalType": "address",
          "name": "_token",
          "type": "address"
        }
      ],
      "name": "isValidPriceFeed",
      "outputs": [
        {
          "internalType": "bool",
          "name": "",
          "type": "bool"
        }
      ],
      "stateMutability": "view",
      "type": "function"
    },
    {
      "inputs": [
        {
          "internalType": "string",
          "name": "_name",
          "type": "string"
        }
      ],
      "name": "createStore",
      "outputs": [],
      "stateMutability": "nonpayable",
      "type": "function"
    },
    {
      "inputs": [
        {
          "internalType": "address",
          "name": "_token",
          "type": "address"
        },
        {
          "internalType": "address",
          "name": "priceFeed",
          "type": "address"
        }
      ],
      "name": "addTokenToPriceFeed",
      "outputs": [],
      "stateMutability": "nonpayable",
      "type": "function"
    },
    {
      "inputs": [
        {
          "internalType": "uint256",
          "name": "_amount",
          "type": "uint256"
        }
      ],
      "name": "claimCashBack",
      "outputs": [],
      "stateMutability": "nonpayable",
      "type": "function"
    },
    {
      "inputs": [
        {
          "internalType": "uint256",
          "name": "_amount",
          "type": "uint256"
        },
        {
          "internalType": "address",
          "name": "_token",
          "type": "address"
        }
      ],
      "name": "calculatePricePerToken",
      "outputs": [
        {
          "internalType": "uint256",
          "name": "",
          "type": "uint256"
        }
      ],
      "stateMutability": "view",
      "type": "function"
    },
    {
      "inputs": [
        {
          "internalType": "uint256",
          "name": "_amount",
          "type": "uint256"
        },
        {
          "internalType": "address",
          "name": "_token",
          "type": "address"
        }
      ],
      "name": "calculateQtyTokenClaim",
      "outputs": [
        {
          "internalType": "uint256",
          "name": "",
          "type": "uint256"
        }
      ],
      "stateMutability": "view",
      "type": "function"
    },
    {
      "inputs": [
        {
          "internalType": "address",
          "name": "_token",
          "type": "address"
        }
      ],
      "name": "getTokenPriceByChainlink",
      "outputs": [
        {
          "internalType": "uint256",
          "name": "",
          "type": "uint256"
        }
      ],
      "stateMutability": "view",
      "type": "function"
    },
    {
      "inputs": [
        {
          "internalType": "uint256",
          "name": "_id",
          "type": "uint256"
        }
      ],
      "name": "getInfoStore",
      "outputs": [
        {
          "components": [
            {
              "internalType": "uint256",
              "name": "id",
              "type": "uint256"
            },
            {
              "internalType": "address",
              "name": "owner",
              "type": "address"
            },
            {
              "internalType": "string",
              "name": "name",
              "type": "string"
            },
            {
              "internalType": "uint256",
              "name": "promotionsQty",
              "type": "uint256"
            },
            {
              "internalType": "address",
              "name": "contractAddress",
              "type": "address"
            }
          ],
          "internalType": "struct AdminProtocol.LocalStore",
          "name": "store",
          "type": "tuple"
        }
      ],
      "stateMutability": "view",
      "type": "function"
    },
    {
      "inputs": [
        {
          "internalType": "address",
          "name": "_contract",
          "type": "address"
        }
      ],
      "name": "getAmountAllowedToMint",
      "outputs": [
        {
          "internalType": "uint256",
          "name": "",
          "type": "uint256"
        }
      ],
      "stateMutability": "view",
      "type": "function"
    },
    {
      "inputs": [],
      "name": "getStoreQuantity",
      "outputs": [
        {
          "internalType": "uint256",
          "name": "",
          "type": "uint256"
        }
      ],
      "stateMutability": "view",
      "type": "function"
    }
  ],
  "bytecode": "0x60c060405262019258608090815250670de0b6b3a764000060a0908152503480156200002a57600080fd5b5060405162004d1038038062004d108339818101604052810190620000509190620001e4565b62000070620000646200010160201b60201c565b6200010960201b60201c565b6001808190555081600360006101000a81548173ffffffffffffffffffffffffffffffffffffffff021916908373ffffffffffffffffffffffffffffffffffffffff16021790555080600460006101000a81548173ffffffffffffffffffffffffffffffffffffffff021916908373ffffffffffffffffffffffffffffffffffffffff160217905550505062000273565b600033905090565b60008060009054906101000a900473ffffffffffffffffffffffffffffffffffffffff169050816000806101000a81548173ffffffffffffffffffffffffffffffffffffffff021916908373ffffffffffffffffffffffffffffffffffffffff1602179055508173ffffffffffffffffffffffffffffffffffffffff168173ffffffffffffffffffffffffffffffffffffffff167f8be0079c531659141344cd1fd0a4f28419497f9722a3daafe3b4186f6b6457e060405160405180910390a35050565b600081519050620001de8162000259565b92915050565b60008060408385031215620001f857600080fd5b60006200020885828601620001cd565b92505060206200021b85828601620001cd565b9150509250929050565b6000620002328262000239565b9050919050565b600073ffffffffffffffffffffffffffffffffffffffff82169050919050565b620002648162000225565b81146200027057600080fd5b50565b60805160a051614a77620002996000396000610c5a0152600061104a0152614a776000f3fe60806040523480156200001157600080fd5b5060043610620001005760003560e01c8063d0e04fe31162000099578063e218e402116200006f578063e218e402146200028d578063e83aa64714620002ad578063f2fde38b14620002e3578063f4c28e3c14620003035762000100565b8063d0e04fe31462000217578063d61dd93e1462000237578063d70b9e0714620002575762000100565b8063715018a611620000db578063715018a614620001915780638da5cb5b146200019d5780639310829f14620001bf578063a495437814620001f55762000100565b8063041aa1151462000105578063041aa543146200012557806357b7de2a146200015b575b600080fd5b6200012360048036038101906200011d9190620019a4565b62000339565b005b6200014360048036038101906200013d919062001978565b620004eb565b60405162000152919062002246565b60405180910390f35b62000179600480360381019062000173919062001a56565b620005f8565b60405162000188919062002222565b60405180910390f35b6200019b62000781565b005b620001a762000812565b604051620001b6919062001fd8565b60405180910390f35b620001dd6004803603810190620001d7919062001978565b6200083b565b604051620001ec9190620020d3565b60405180910390f35b620001ff620008e4565b6040516200020e919062002246565b60405180910390f35b6200023560048036038101906200022f919062001a11565b620008ee565b005b6200025560048036038101906200024f919062001ac3565b62000c58565b005b6200027560048036038101906200026f919062001a82565b62000f94565b60405162000284919062002246565b60405180910390f35b620002ab6004803603810190620002a5919062001a56565b6200108b565b005b620002cb6004803603810190620002c5919062001a82565b6200128d565b604051620002da919062002246565b60405180910390f35b620003016004803603810190620002fb919062001978565b62001326565b005b6200032160048036038101906200031b919062001978565b6200142a565b60405162000330919062002246565b60405180910390f35b6200034362001473565b73ffffffffffffffffffffffffffffffffffffffff166200036362000812565b73ffffffffffffffffffffffffffffffffffffffff1614620003bc576040517f08c379a0000000000000000000000000000000000000000000000000000000008152600401620003b39062002134565b60405180910390fd5b600073ffffffffffffffffffffffffffffffffffffffff168273ffffffffffffffffffffffffffffffffffffffff1614158015620004275750600073ffffffffffffffffffffffffffffffffffffffff168173ffffffffffffffffffffffffffffffffffffffff1614155b62000469576040517f08c379a0000000000000000000000000000000000000000000000000000000008152600401620004609062002156565b60405180910390fd5b80600560008473ffffffffffffffffffffffffffffffffffffffff1673ffffffffffffffffffffffffffffffffffffffff16815260200190815260200160002060006101000a81548173ffffffffffffffffffffffffffffffffffffffff021916908373ffffffffffffffffffffffffffffffffffffffff1602179055505050565b600080600560008473ffffffffffffffffffffffffffffffffffffffff1673ffffffffffffffffffffffffffffffffffffffff16815260200190815260200160002060009054906101000a900473ffffffffffffffffffffffffffffffffffffffff169050600081905060008060008060008573ffffffffffffffffffffffffffffffffffffffff1663feaf968c6040518163ffffffff1660e01b815260040160a06040518083038186803b158015620005a457600080fd5b505afa158015620005b9573d6000803e3d6000fd5b505050506040513d601f19601f82011682018060405250810190620005df919062001b04565b9450945094509450945083975050505050505050919050565b6200060262001763565b600660008381526020019081526020016000206040518060a0016040529081600082015481526020016001820160009054906101000a900473ffffffffffffffffffffffffffffffffffffffff1673ffffffffffffffffffffffffffffffffffffffff1673ffffffffffffffffffffffffffffffffffffffff168152602001600282018054620006929062002467565b80601f0160208091040260200160405190810160405280929190818152602001828054620006c09062002467565b8015620007115780601f10620006e55761010080835404028352916020019162000711565b820191906000526020600020905b815481529060010190602001808311620006f357829003601f168201915b50505050508152602001600382015481526020016004820160009054906101000a900473ffffffffffffffffffffffffffffffffffffffff1673ffffffffffffffffffffffffffffffffffffffff1673ffffffffffffffffffffffffffffffffffffffff16815250509050919050565b6200078b62001473565b73ffffffffffffffffffffffffffffffffffffffff16620007ab62000812565b73ffffffffffffffffffffffffffffffffffffffff161462000804576040517f08c379a0000000000000000000000000000000000000000000000000000000008152600401620007fb9062002134565b60405180910390fd5b6200081060006200147b565b565b60008060009054906101000a900473ffffffffffffffffffffffffffffffffffffffff16905090565b60008073ffffffffffffffffffffffffffffffffffffffff16600560008473ffffffffffffffffffffffffffffffffffffffff1673ffffffffffffffffffffffffffffffffffffffff16815260200190815260200160002060009054906101000a900473ffffffffffffffffffffffffffffffffffffffff1673ffffffffffffffffffffffffffffffffffffffff1614620008da5760019050620008df565b600090505b919050565b6000600154905090565b60003360015483600360009054906101000a900473ffffffffffffffffffffffffffffffffffffffff16600460009054906101000a900473ffffffffffffffffffffffffffffffffffffffff16306040516200094a90620017be565b6200095b969594939291906200205f565b604051809103906000f08015801562000978573d6000803e3d6000fd5b509050600073ffffffffffffffffffffffffffffffffffffffff168173ffffffffffffffffffffffffffffffffffffffff161415620009ee576040517f08c379a0000000000000000000000000000000000000000000000000000000008152600401620009e59062002178565b60405180910390fd5b60006040518060a0016040528060015481526020013373ffffffffffffffffffffffffffffffffffffffff168152602001848152602001600081526020018373ffffffffffffffffffffffffffffffffffffffff168152509050806006600060015481526020019081526020016000206000820151816000015560208201518160010160006101000a81548173ffffffffffffffffffffffffffffffffffffffff021916908373ffffffffffffffffffffffffffffffffffffffff160217905550604082015181600201908051906020019062000acd929190620017cc565b506060820151816003015560808201518160040160006101000a81548173ffffffffffffffffffffffffffffffffffffffff021916908373ffffffffffffffffffffffffffffffffffffffff16021790555090505080600760003373ffffffffffffffffffffffffffffffffffffffff1673ffffffffffffffffffffffffffffffffffffffff168152602001908152602001600020600060015481526020019081526020016000206000820151816000015560208201518160010160006101000a81548173ffffffffffffffffffffffffffffffffffffffff021916908373ffffffffffffffffffffffffffffffffffffffff160217905550604082015181600201908051906020019062000be4929190620017cc565b506060820151816003015560808201518160040160006101000a81548173ffffffffffffffffffffffffffffffffffffffff021916908373ffffffffffffffffffffffffffffffffffffffff1602179055509050506001600081548092919062000c4e906200249d565b9190505550505050565b7f0000000000000000000000000000000000000000000000000000000000000000821162000cbd576040517f08c379a000000000000000000000000000000000000000000000000000000000815260040162000cb490620021bc565b60405180910390fd5b62000cc981336200153f565b62000d0b576040517f08c379a000000000000000000000000000000000000000000000000000000000815260040162000d02906200219a565b60405180910390fd5b6000600660008381526020019081526020016000206040518060a0016040529081600082015481526020016001820160009054906101000a900473ffffffffffffffffffffffffffffffffffffffff1673ffffffffffffffffffffffffffffffffffffffff1673ffffffffffffffffffffffffffffffffffffffff16815260200160028201805462000d9d9062002467565b80601f016020809104026020016040519081016040528092919081815260200182805462000dcb9062002467565b801562000e1c5780601f1062000df05761010080835404028352916020019162000e1c565b820191906000526020600020905b81548152906001019060200180831162000dfe57829003601f168201915b50505050508152602001600382015481526020016004820160009054906101000a900473ffffffffffffffffffffffffffffffffffffffff1673ffffffffffffffffffffffffffffffffffffffff1673ffffffffffffffffffffffffffffffffffffffff168152505090503373ffffffffffffffffffffffffffffffffffffffff16816080015173ffffffffffffffffffffffffffffffffffffffff161462000efc576040517f08c379a000000000000000000000000000000000000000000000000000000000815260040162000ef39062002200565b60405180910390fd5b600460009054906101000a900473ffffffffffffffffffffffffffffffffffffffff1673ffffffffffffffffffffffffffffffffffffffff16636e49e2a433856040518363ffffffff1660e01b815260040162000f5b92919062002032565b600060405180830381600087803b15801562000f7657600080fd5b505af115801562000f8b573d6000803e3d6000fd5b50505050505050565b60006001151562000fa5836200083b565b15151462000fea576040517f08c379a000000000000000000000000000000000000000000000000000000000815260040162000fe19062002112565b60405180910390fd5b6000620f4240606462000ffd85620004eb565b620010099190620022f7565b64e8d4a51000600a876200101e9190620022f7565b6200102a9190620022f7565b6200103691906200232f565b620010429190620022f7565b9050620186a07f0000000000000000000000000000000000000000000000000000000000000000826200107691906200232f565b620010829190620022f7565b91505092915050565b600460009054906101000a900473ffffffffffffffffffffffffffffffffffffffff1673ffffffffffffffffffffffffffffffffffffffff166323b872dd3330846040518463ffffffff1660e01b8152600401620010ec9392919062001ff5565b602060405180830381600087803b1580156200110757600080fd5b505af11580156200111c573d6000803e3d6000fd5b505050506040513d601f19601f82011682018060405250810190620011429190620019e5565b50600460009054906101000a900473ffffffffffffffffffffffffffffffffffffffff1673ffffffffffffffffffffffffffffffffffffffff166342966c68826040518263ffffffff1660e01b8152600401620011a0919062002246565b600060405180830381600087803b158015620011bb57600080fd5b505af1158015620011d0573d6000803e3d6000fd5b50505050600360009054906101000a900473ffffffffffffffffffffffffffffffffffffffff1673ffffffffffffffffffffffffffffffffffffffff1663a9059cbb33836040518363ffffffff1660e01b81526004016200123392919062002032565b602060405180830381600087803b1580156200124e57600080fd5b505af115801562001263573d6000803e3d6000fd5b505050506040513d601f19601f82011682018060405250810190620012899190620019e5565b5050565b6000600115156200129e836200083b565b151514620012e3576040517f08c379a0000000000000000000000000000000000000000000000000000000008152600401620012da9062002112565b60405180910390fd5b6064620012f083620004eb565b678ac7230489e8000085620013069190620022f7565b6200131291906200232f565b6200131e9190620022f7565b905092915050565b6200133062001473565b73ffffffffffffffffffffffffffffffffffffffff166200135062000812565b73ffffffffffffffffffffffffffffffffffffffff1614620013a9576040517f08c379a0000000000000000000000000000000000000000000000000000000008152600401620013a09062002134565b60405180910390fd5b600073ffffffffffffffffffffffffffffffffffffffff168173ffffffffffffffffffffffffffffffffffffffff1614156200141c576040517f08c379a00000000000000000000000000000000000000000000000000000000081526004016200141390620020f0565b60405180910390fd5b62001427816200147b565b50565b6000600860008373ffffffffffffffffffffffffffffffffffffffff1673ffffffffffffffffffffffffffffffffffffffff168152602001908152602001600020549050919050565b600033905090565b60008060009054906101000a900473ffffffffffffffffffffffffffffffffffffffff169050816000806101000a81548173ffffffffffffffffffffffffffffffffffffffff021916908373ffffffffffffffffffffffffffffffffffffffff1602179055508173ffffffffffffffffffffffffffffffffffffffff168173ffffffffffffffffffffffffffffffffffffffff167f8be0079c531659141344cd1fd0a4f28419497f9722a3daafe3b4186f6b6457e060405160405180910390a35050565b600080831162001586576040517f08c379a00000000000000000000000000000000000000000000000000000000081526004016200157d90620021de565b60405180910390fd5b6000600660008581526020019081526020016000206040518060a0016040529081600082015481526020016001820160009054906101000a900473ffffffffffffffffffffffffffffffffffffffff1673ffffffffffffffffffffffffffffffffffffffff1673ffffffffffffffffffffffffffffffffffffffff168152602001600282018054620016189062002467565b80601f0160208091040260200160405190810160405280929190818152602001828054620016469062002467565b8015620016975780601f106200166b5761010080835404028352916020019162001697565b820191906000526020600020905b8154815290600101906020018083116200167957829003601f168201915b50505050508152602001600382015481526020016004820160009054906101000a900473ffffffffffffffffffffffffffffffffffffffff1673ffffffffffffffffffffffffffffffffffffffff1673ffffffffffffffffffffffffffffffffffffffff16815250509050600081600001511180156200174657508273ffffffffffffffffffffffffffffffffffffffff16816080015173ffffffffffffffffffffffffffffffffffffffff16145b15620017575760019150506200175d565b60009150505b92915050565b6040518060a0016040528060008152602001600073ffffffffffffffffffffffffffffffffffffffff1681526020016060815260200160008152602001600073ffffffffffffffffffffffffffffffffffffffff1681525090565b612407806200263b83390190565b828054620017da9062002467565b90600052602060002090601f016020900481019282620017fe57600085556200184a565b82601f106200181957805160ff19168380011785556200184a565b828001600101855582156200184a579182015b82811115620018495782518255916020019190600101906200182c565b5b5090506200185991906200185d565b5090565b5b80821115620018785760008160009055506001016200185e565b5090565b6000620018936200188d8462002297565b62002263565b905082815260208101848484011115620018ac57600080fd5b620018b984828562002422565b509392505050565b600081359050620018d281620025b8565b92915050565b600081519050620018e981620025d2565b92915050565b6000815190506200190081620025ec565b92915050565b600082601f8301126200191857600080fd5b81356200192a8482602086016200187c565b91505092915050565b600081359050620019448162002606565b92915050565b6000815190506200195b8162002606565b92915050565b600081519050620019728162002620565b92915050565b6000602082840312156200198b57600080fd5b60006200199b84828501620018c1565b91505092915050565b60008060408385031215620019b857600080fd5b6000620019c885828601620018c1565b9250506020620019db85828601620018c1565b9150509250929050565b600060208284031215620019f857600080fd5b600062001a0884828501620018d8565b91505092915050565b60006020828403121562001a2457600080fd5b600082013567ffffffffffffffff81111562001a3f57600080fd5b62001a4d8482850162001906565b91505092915050565b60006020828403121562001a6957600080fd5b600062001a798482850162001933565b91505092915050565b6000806040838503121562001a9657600080fd5b600062001aa68582860162001933565b925050602062001ab985828601620018c1565b9150509250929050565b6000806040838503121562001ad757600080fd5b600062001ae78582860162001933565b925050602062001afa8582860162001933565b9150509250929050565b600080600080600060a0868803121562001b1d57600080fd5b600062001b2d8882890162001961565b955050602062001b4088828901620018ef565b945050604062001b53888289016200194a565b935050606062001b66888289016200194a565b925050608062001b798882890162001961565b9150509295509295909350565b62001b918162002390565b82525050565b62001ba28162002390565b82525050565b62001bb381620023a4565b82525050565b62001bc481620023fa565b82525050565b600062001bd782620022ca565b62001be38185620022d5565b935062001bf581856020860162002431565b62001c0081620025a7565b840191505092915050565b600062001c1882620022ca565b62001c248185620022e6565b935062001c3681856020860162002431565b62001c4181620025a7565b840191505092915050565b600062001c5b602683620022e6565b91507f4f776e61626c653a206e6577206f776e657220697320746865207a65726f206160008301527f64647265737300000000000000000000000000000000000000000000000000006020830152604082019050919050565b600062001cc3601283620022e6565b91507f546f6b656e206973206e6f742076616c696400000000000000000000000000006000830152602082019050919050565b600062001d05602083620022e6565b91507f4f776e61626c653a2063616c6c6572206973206e6f7420746865206f776e65726000830152602082019050919050565b600062001d47601583620022e6565b91507f4d7573742062652076616c6964206164647265737300000000000000000000006000830152602082019050919050565b600062001d89601983620022e6565b91507f436f6e7472616374206d757374206265206465706c6f796564000000000000006000830152602082019050919050565b600062001dcb601b83620022e6565b91507f4f6e6c792076616c69642073746f72652063616e2075706461746500000000006000830152602082019050919050565b600062001e0d602883620022e6565b91507f416d6f756e74206d7573742062652067726561746572206f7220657175616c2060008301527f7468616e206f6e650000000000000000000000000000000000000000000000006020830152604082019050919050565b600062001e75602283620022e6565b91507f49642073746f7265206d7573742062652067726561746572207468616e207a6560008301527f726f0000000000000000000000000000000000000000000000000000000000006020830152604082019050919050565b600062001edd602783620022e6565b91507f4f6e6c792076616c69642073746f72652063616e2063616c6c2074686973206660008301527f756e6374696f6e000000000000000000000000000000000000000000000000006020830152604082019050919050565b600060a08301600083015162001f50600086018262001fb6565b50602083015162001f65602086018262001b86565b506040830151848203604086015262001f7f828262001bca565b915050606083015162001f96606086018262001fb6565b50608083015162001fab608086018262001b86565b508091505092915050565b62001fc181620023da565b82525050565b62001fd281620023da565b82525050565b600060208201905062001fef600083018462001b97565b92915050565b60006060820190506200200c600083018662001b97565b6200201b602083018562001b97565b6200202a604083018462001fc7565b949350505050565b600060408201905062002049600083018562001b97565b62002058602083018462001fc7565b9392505050565b600060c08201905062002076600083018962001b97565b62002085602083018862001fc7565b818103604083015262002099818762001c0b565b9050620020aa606083018662001b97565b620020b9608083018562001bb9565b620020c860a083018462001b97565b979650505050505050565b6000602082019050620020ea600083018462001ba8565b92915050565b600060208201905081810360008301526200210b8162001c4c565b9050919050565b600060208201905081810360008301526200212d8162001cb4565b9050919050565b600060208201905081810360008301526200214f8162001cf6565b9050919050565b60006020820190508181036000830152620021718162001d38565b9050919050565b60006020820190508181036000830152620021938162001d7a565b9050919050565b60006020820190508181036000830152620021b58162001dbc565b9050919050565b60006020820190508181036000830152620021d78162001dfe565b9050919050565b60006020820190508181036000830152620021f98162001e66565b9050919050565b600060208201905081810360008301526200221b8162001ece565b9050919050565b600060208201905081810360008301526200223e818462001f36565b905092915050565b60006020820190506200225d600083018462001fc7565b92915050565b6000604051905081810181811067ffffffffffffffff821117156200228d576200228c62002578565b5b8060405250919050565b600067ffffffffffffffff821115620022b557620022b462002578565b5b601f19601f8301169050602081019050919050565b600081519050919050565b600082825260208201905092915050565b600082825260208201905092915050565b60006200230482620023da565b91506200231183620023da565b9250826200232457620023236200251a565b5b828204905092915050565b60006200233c82620023da565b91506200234983620023da565b9250817fffffffffffffffffffffffffffffffffffffffffffffffffffffffffffffffff0483118215151615620023855762002384620024eb565b5b828202905092915050565b60006200239d82620023ba565b9050919050565b60008115159050919050565b6000819050919050565b600073ffffffffffffffffffffffffffffffffffffffff82169050919050565b6000819050919050565b600069ffffffffffffffffffff82169050919050565b600062002407826200240e565b9050919050565b60006200241b82620023ba565b9050919050565b82818337600083830152505050565b60005b838110156200245157808201518184015260208101905062002434565b8381111562002461576000848401525b50505050565b600060028204905060018216806200248057607f821691505b6020821081141562002497576200249662002549565b5b50919050565b6000620024aa82620023da565b91507fffffffffffffffffffffffffffffffffffffffffffffffffffffffffffffffff821415620024e057620024df620024eb565b5b600182019050919050565b7f4e487b7100000000000000000000000000000000000000000000000000000000600052601160045260246000fd5b7f4e487b7100000000000000000000000000000000000000000000000000000000600052601260045260246000fd5b7f4e487b7100000000000000000000000000000000000000000000000000000000600052602260045260246000fd5b7f4e487b7100000000000000000000000000000000000000000000000000000000600052604160045260246000fd5b6000601f19601f8301169050919050565b620025c38162002390565b8114620025cf57600080fd5b50565b620025dd81620023a4565b8114620025e957600080fd5b50565b620025f781620023b0565b81146200260357600080fd5b50565b6200261181620023da565b81146200261d57600080fd5b50565b6200262b81620023e4565b81146200263757600080fd5b5056fe60a0604052670de0b6b3a76400006080908152503480156200002057600080fd5b5060405162002407380380620024078339818101604052810190620000469190620003ad565b600073ffffffffffffffffffffffffffffffffffffffff168673ffffffffffffffffffffffffffffffffffffffff1614158015620000845750600085115b620000c6576040517f08c379a0000000000000000000000000000000000000000000000000000000008152600401620000bd90620004c4565b60405180910390fd5b84600081905550600180819055508360049080519060200190620000ec92919062000246565b5085600560006101000a81548173ffffffffffffffffffffffffffffffffffffffff021916908373ffffffffffffffffffffffffffffffffffffffff160217905550600060038190555082600760006101000a81548173ffffffffffffffffffffffffffffffffffffffff021916908373ffffffffffffffffffffffffffffffffffffffff16021790555081600860006101000a81548173ffffffffffffffffffffffffffffffffffffffff021916908373ffffffffffffffffffffffffffffffffffffffff16021790555080600660006101000a81548173ffffffffffffffffffffffffffffffffffffffff021916908373ffffffffffffffffffffffffffffffffffffffff16021790555080600960006101000a81548173ffffffffffffffffffffffffffffffffffffffff021916908373ffffffffffffffffffffffffffffffffffffffff160217905550505050505050620006c8565b8280546200025490620005e6565b90600052602060002090601f016020900481019282620002785760008555620002c4565b82601f106200029357805160ff1916838001178555620002c4565b82800160010185558215620002c4579182015b82811115620002c3578251825591602001919060010190620002a6565b5b509050620002d39190620002d7565b5090565b5b80821115620002f2576000816000905550600101620002d8565b5090565b60006200030d62000307846200051a565b620004e6565b9050828152602081018484840111156200032657600080fd5b62000333848285620005b0565b509392505050565b6000815190506200034c816200067a565b92915050565b600081519050620003638162000694565b92915050565b600082601f8301126200037b57600080fd5b81516200038d848260208601620002f6565b91505092915050565b600081519050620003a781620006ae565b92915050565b60008060008060008060c08789031215620003c757600080fd5b6000620003d789828a016200033b565b9650506020620003ea89828a0162000396565b955050604087015167ffffffffffffffff8111156200040857600080fd5b6200041689828a0162000369565b94505060606200042989828a016200033b565b93505060806200043c89828a0162000352565b92505060a06200044f89828a016200033b565b9150509295509295509295565b60006200046b603f836200054d565b91507f61646472657373206d7573742062652076616c696420616e64204964206d757360008301527f7420626520657175616c206f722067726561746572207468616e207a65726f006020830152604082019050919050565b60006020820190508181036000830152620004df816200045c565b9050919050565b6000604051905081810181811067ffffffffffffffff8211171562000510576200050f6200064b565b5b8060405250919050565b600067ffffffffffffffff8211156200053857620005376200064b565b5b601f19601f8301169050602081019050919050565b600082825260208201905092915050565b60006200056b8262000586565b9050919050565b60006200057f826200055e565b9050919050565b600073ffffffffffffffffffffffffffffffffffffffff82169050919050565b6000819050919050565b60005b83811015620005d0578082015181840152602081019050620005b3565b83811115620005e0576000848401525b50505050565b60006002820490506001821680620005ff57607f821691505b602082108114156200061657620006156200061c565b5b50919050565b7f4e487b7100000000000000000000000000000000000000000000000000000000600052602260045260246000fd5b7f4e487b7100000000000000000000000000000000000000000000000000000000600052604160045260246000fd5b62000685816200055e565b81146200069157600080fd5b50565b6200069f8162000572565b8114620006ab57600080fd5b50565b620006b981620005a6565b8114620006c557600080fd5b50565b608051611d23620006e4600039600061095a0152611d236000f3fe608060405234801561001057600080fd5b50600436106100a95760003560e01c80637801144b116100715780637801144b146101645780637bf12b1c146101825780638da5cb5b1461019e5780639134709e146101bc578063c8f4ef8f146101d8578063cf6b997d146101f4576100a9565b8063174c5e33146100ae57806331f43564146100cc5780633f70c2b4146100fc57806353b628661461012c57806360a51d3414610148575b600080fd5b6100b6610210565b6040516100c391906119d6565b60405180910390f35b6100e660048036038101906100e191906112e0565b61021a565b6040516100f391906119bb565b60405180910390f35b610116600480360381019061011191906112e0565b610324565b6040516101239190611999565b60405180910390f35b6101466004803603810190610141919061136e565b610491565b005b610162600480360381019061015d91906113aa565b6106d3565b005b61016c6107e6565b60405161017991906119d6565b60405180910390f35b61019c60048036038101906101979190611279565b6107f0565b005b6101a661092e565b6040516101b391906117fe565b60405180910390f35b6101d660048036038101906101d19190611332565b610958565b005b6101f260048036038101906101ed919061136e565b610d34565b005b61020e6004803603810190610209919061136e565b610e96565b005b6000600254905090565b610222611091565b60008211610265576040517f08c379a000000000000000000000000000000000000000000000000000000000815260040161025c906118f9565b60405180910390fd5b6000600b60008481526020019081526020016000206040518060c00160405290816000820154815260200160018201548152602001600282015481526020016003820160009054906101000a900460ff16151515158152602001600482015481526020016005820154815250509050600081600001511161031b576040517f08c379a000000000000000000000000000000000000000000000000000000000815260040161031290611939565b60405180910390fd5b80915050919050565b61032c6110c9565b6000821161036f576040517f08c379a000000000000000000000000000000000000000000000000000000000815260040161036690611919565b60405180910390fd5b6000600a6000848152602001908152602001600020604051806080016040529081600082015481526020016001820180546103a990611b8f565b80601f01602080910402602001604051908101604052809291908181526020018280546103d590611b8f565b80156104225780601f106103f757610100808354040283529160200191610422565b820191906000526020600020905b81548152906001019060200180831161040557829003601f168201915b505050505081526020016002820154815260200160038201548152505090506000816000015111610488576040517f08c379a000000000000000000000000000000000000000000000000000000000815260040161047f90611879565b60405180910390fd5b80915050919050565b6001151561049f8383610fbd565b1515146104e1576040517f08c379a00000000000000000000000000000000000000000000000000000000081526004016104d890611899565b60405180910390fd5b60006104ec82610324565b905060006104f98461021a565b905081606001518160a001511015610546576040517f08c379a000000000000000000000000000000000000000000000000000000000815260040161053d906118b9565b60405180910390fd5b81606001518160a00181815161055c9190611ad1565b91508181525050600760009054906101000a900473ffffffffffffffffffffffffffffffffffffffff1673ffffffffffffffffffffffffffffffffffffffff166323b872dd333085604001516040518463ffffffff1660e01b81526004016105c693929190611819565b602060405180830381600087803b1580156105e057600080fd5b505af11580156105f4573d6000803e3d6000fd5b505050506040513d601f19601f820116820180604052508101906106189190611250565b50600860009054906101000a900473ffffffffffffffffffffffffffffffffffffffff1673ffffffffffffffffffffffffffffffffffffffff1663a9059cbb3384606001516040518363ffffffff1660e01b815260040161067a929190611850565b602060405180830381600087803b15801561069457600080fd5b505af11580156106a8573d6000803e3d6000fd5b505050506040513d601f19601f820116820180604052508101906106cc9190611250565b5050505050565b600560009054906101000a900473ffffffffffffffffffffffffffffffffffffffff1673ffffffffffffffffffffffffffffffffffffffff163373ffffffffffffffffffffffffffffffffffffffff161461072d57600080fd5b6040518060c00160405280600154815260200184815260200183815260200160011515815260200182815260200182815250600b6000600154815260200190815260200160002060008201518160000155602082015181600101556040820151816002015560608201518160030160006101000a81548160ff0219169083151502179055506080820151816004015560a08201518160050155905050600160008154809291906107dc90611bc1565b9190505550505050565b6000600154905090565b600560009054906101000a900473ffffffffffffffffffffffffffffffffffffffff1673ffffffffffffffffffffffffffffffffffffffff163373ffffffffffffffffffffffffffffffffffffffff161461084a57600080fd5b6000821015801561085c575060008110155b61089b576040517f08c379a000000000000000000000000000000000000000000000000000000000815260040161089290611979565b60405180910390fd5b6040518060800160405280600254815260200184815260200183815260200182815250600a600060025481526020019081526020016000206000820151816000015560208201518160010190805190602001906108f99291906110f1565b5060408201518160020155606082015181600301559050506002600081548092919061092490611bc1565b9190505550505050565b6000600560009054906101000a900473ffffffffffffffffffffffffffffffffffffffff16905090565b7f00000000000000000000000000000000000000000000000000000000000000008210156109bb576040517f08c379a00000000000000000000000000000000000000000000000000000000081526004016109b290611959565b60405180910390fd5b6000600960009054906101000a900473ffffffffffffffffffffffffffffffffffffffff1673ffffffffffffffffffffffffffffffffffffffff1663d70b9e0784846040518363ffffffff1660e01b8152600401610a1a9291906119f1565b60206040518083038186803b158015610a3257600080fd5b505afa158015610a46573d6000803e3d6000fd5b505050506040513d601f19601f82011682018060405250810190610a6a9190611309565b9050600760009054906101000a900473ffffffffffffffffffffffffffffffffffffffff1673ffffffffffffffffffffffffffffffffffffffff166323b872dd3330846040518463ffffffff1660e01b8152600401610acb93929190611819565b602060405180830381600087803b158015610ae557600080fd5b505af1158015610af9573d6000803e3d6000fd5b505050506040513d601f19601f82011682018060405250810190610b1d9190611250565b50600960009054906101000a900473ffffffffffffffffffffffffffffffffffffffff1673ffffffffffffffffffffffffffffffffffffffff1663d61dd93e846000546040518363ffffffff1660e01b8152600401610b7d929190611a1a565b600060405180830381600087803b158015610b9757600080fd5b505af1158015610bab573d6000803e3d6000fd5b50505050600860009054906101000a900473ffffffffffffffffffffffffffffffffffffffff1673ffffffffffffffffffffffffffffffffffffffff1663c634d032846040518263ffffffff1660e01b8152600401610c0a91906119d6565b602060405180830381600087803b158015610c2457600080fd5b505af1158015610c38573d6000803e3d6000fd5b505050506040513d601f19601f82011682018060405250810190610c5c9190611250565b50600760009054906101000a900473ffffffffffffffffffffffffffffffffffffffff1673ffffffffffffffffffffffffffffffffffffffff1663a9059cbb600660009054906101000a900473ffffffffffffffffffffffffffffffffffffffff16836040518363ffffffff1660e01b8152600401610cdc929190611850565b602060405180830381600087803b158015610cf657600080fd5b505af1158015610d0a573d6000803e3d6000fd5b505050506040513d601f19601f82011682018060405250810190610d2e9190611250565b50505050565b600560009054906101000a900473ffffffffffffffffffffffffffffffffffffffff1673ffffffffffffffffffffffffffffffffffffffff163373ffffffffffffffffffffffffffffffffffffffff1614610d8e57600080fd5b600081118015610d9e5750600082115b610ddd576040517f08c379a0000000000000000000000000000000000000000000000000000000008152600401610dd4906118d9565b60405180910390fd5b6000610de88361021a565b90506000610df583610324565b90506040518060600160405280826000015181526020018360000151815260200160011515815250600c60008681526020019081526020016000206000858152602001908152602001600020600082015181600001556020820151816001015560408201518160020160006101000a81548160ff02191690831515021790555090505060036000815480929190610e8b90611bc1565b919050555050505050565b600560009054906101000a900473ffffffffffffffffffffffffffffffffffffffff1673ffffffffffffffffffffffffffffffffffffffff163373ffffffffffffffffffffffffffffffffffffffff1614610ef057600080fd5b60011515610efe8284610fbd565b151514610f40576040517f08c379a0000000000000000000000000000000000000000000000000000000008152600401610f3790611899565b60405180910390fd5b604051806060016040528082815260200183815260200160001515815250600c60008481526020019081526020016000206000838152602001908152602001600020600082015181600001556020820151816001015560408201518160020160006101000a81548160ff0219169083151502179055509050505050565b60008082118015610fce5750600083115b61100d576040517f08c379a0000000000000000000000000000000000000000000000000000000008152600401611004906118d9565b60405180910390fd5b6000600c6000858152602001908152602001600020600084815260200190815260200160002060405180606001604052908160008201548152602001600182015481526020016002820160009054906101000a900460ff1615151515815250509050828160000151141561108557600191505061108b565b60009150505b92915050565b6040518060c0016040528060008152602001600081526020016000815260200160001515815260200160008152602001600081525090565b6040518060800160405280600081526020016060815260200160008152602001600081525090565b8280546110fd90611b8f565b90600052602060002090601f01602090048101928261111f5760008555611166565b82601f1061113857805160ff1916838001178555611166565b82800160010185558215611166579182015b8281111561116557825182559160200191906001019061114a565b5b5090506111739190611177565b5090565b5b80821115611190576000816000905550600101611178565b5090565b60006111a76111a284611a74565b611a43565b9050828152602081018484840111156111bf57600080fd5b6111ca848285611b4d565b509392505050565b6000813590506111e181611ca8565b92915050565b6000815190506111f681611cbf565b92915050565b600082601f83011261120d57600080fd5b813561121d848260208601611194565b91505092915050565b60008135905061123581611cd6565b92915050565b60008151905061124a81611cd6565b92915050565b60006020828403121561126257600080fd5b6000611270848285016111e7565b91505092915050565b60008060006060848603121561128e57600080fd5b600084013567ffffffffffffffff8111156112a857600080fd5b6112b4868287016111fc565b93505060206112c586828701611226565b92505060406112d686828701611226565b9150509250925092565b6000602082840312156112f257600080fd5b600061130084828501611226565b91505092915050565b60006020828403121561131b57600080fd5b60006113298482850161123b565b91505092915050565b6000806040838503121561134557600080fd5b600061135385828601611226565b9250506020611364858286016111d2565b9150509250929050565b6000806040838503121561138157600080fd5b600061138f85828601611226565b92505060206113a085828601611226565b9150509250929050565b6000806000606084860312156113bf57600080fd5b60006113cd86828701611226565b93505060206113de86828701611226565b92505060406113ef86828701611226565b9150509250925092565b61140281611b05565b82525050565b61141181611b17565b82525050565b600061142282611aa4565b61142c8185611aaf565b935061143c818560208601611b5c565b61144581611c97565b840191505092915050565b600061145d601683611ac0565b91507f50726f6475637420646f6573206e6f74206578697374000000000000000000006000830152602082019050919050565b600061149d601c83611ac0565b91507f50726f6475637420686173206e6f74206265656e20617369676e6564000000006000830152602082019050919050565b60006114dd602f83611ac0565b91507f5468652070726f6d6f74696f6e20646f6573206e6f74206861766520656e6f7560008301527f67682055435420746f20676976652100000000000000000000000000000000006020830152604082019050919050565b6000611543601d83611ac0565b91507f496473206d7573742062652067726561746572207468616e207a65726f0000006000830152602082019050919050565b6000611583601c83611ac0565b91507f4964206d7573742062652067726561746572207468616e207a65726f000000006000830152602082019050919050565b60006115c3601d83611ac0565b91507f4964206d757374206265206772656174686572207468616e207a65726f0000006000830152602082019050919050565b6000611603601883611ac0565b91507f50726f6d6f74696f6e20646f6573206e6f7420657869737400000000000000006000830152602082019050919050565b6000611643601d83611ac0565b91507f416d6f756e74206d7573742062652067726561746865722074616e20310000006000830152602082019050919050565b6000611683604983611ac0565b91507f50726963652070726f6475637420616e6420746f6b656e7320746f206265206160008301527f7369676e6564206d75737420626520657175616c206f7220677265617465722060208301527f7468616e207a65726f00000000000000000000000000000000000000000000006040830152606082019050919050565b600060808301600083015161171a60008601826117e0565b50602083015184820360208601526117328282611417565b915050604083015161174760408601826117e0565b50606083015161175a60608601826117e0565b508091505092915050565b60c08201600082015161177b60008501826117e0565b50602082015161178e60208501826117e0565b5060408201516117a160408501826117e0565b5060608201516117b46060850182611408565b5060808201516117c760808501826117e0565b5060a08201516117da60a08501826117e0565b50505050565b6117e981611b43565b82525050565b6117f881611b43565b82525050565b600060208201905061181360008301846113f9565b92915050565b600060608201905061182e60008301866113f9565b61183b60208301856113f9565b61184860408301846117ef565b949350505050565b600060408201905061186560008301856113f9565b61187260208301846117ef565b9392505050565b6000602082019050818103600083015261189281611450565b9050919050565b600060208201905081810360008301526118b281611490565b9050919050565b600060208201905081810360008301526118d2816114d0565b9050919050565b600060208201905081810360008301526118f281611536565b9050919050565b6000602082019050818103600083015261191281611576565b9050919050565b60006020820190508181036000830152611932816115b6565b9050919050565b60006020820190508181036000830152611952816115f6565b9050919050565b6000602082019050818103600083015261197281611636565b9050919050565b6000602082019050818103600083015261199281611676565b9050919050565b600060208201905081810360008301526119b38184611702565b905092915050565b600060c0820190506119d06000830184611765565b92915050565b60006020820190506119eb60008301846117ef565b92915050565b6000604082019050611a0660008301856117ef565b611a1360208301846113f9565b9392505050565b6000604082019050611a2f60008301856117ef565b611a3c60208301846117ef565b9392505050565b6000604051905081810181811067ffffffffffffffff82111715611a6a57611a69611c68565b5b8060405250919050565b600067ffffffffffffffff821115611a8f57611a8e611c68565b5b601f19601f8301169050602081019050919050565b600081519050919050565b600082825260208201905092915050565b600082825260208201905092915050565b6000611adc82611b43565b9150611ae783611b43565b925082821015611afa57611af9611c0a565b5b828203905092915050565b6000611b1082611b23565b9050919050565b60008115159050919050565b600073ffffffffffffffffffffffffffffffffffffffff82169050919050565b6000819050919050565b82818337600083830152505050565b60005b83811015611b7a578082015181840152602081019050611b5f565b83811115611b89576000848401525b50505050565b60006002820490506001821680611ba757607f821691505b60208210811415611bbb57611bba611c39565b5b50919050565b6000611bcc82611b43565b91507fffffffffffffffffffffffffffffffffffffffffffffffffffffffffffffffff821415611bff57611bfe611c0a565b5b600182019050919050565b7f4e487b7100000000000000000000000000000000000000000000000000000000600052601160045260246000fd5b7f4e487b7100000000000000000000000000000000000000000000000000000000600052602260045260246000fd5b7f4e487b7100000000000000000000000000000000000000000000000000000000600052604160045260246000fd5b6000601f19601f8301169050919050565b611cb181611b05565b8114611cbc57600080fd5b50565b611cc881611b17565b8114611cd357600080fd5b50565b611cdf81611b43565b8114611cea57600080fd5b5056fea26469706673582212205808f00d1e7a9424e136d7cf9f1919217e38678aa572c5c5163e85821902f5b264736f6c63430008000033a2646970667358221220108fb7b8929ae69163a9c412abc73c0db8d791e56abf0b146bab54a8e050588564736f6c63430008000033",
  "immutableReferences": {
    "12": [
      {
        "length": 32,
        "start": 4170
      }
    ],
    "19": [
      {
        "length": 32,
        "start": 3162
      }
    ]
  },
  "source": "// SPDX-License-Identifier: MIT\r\npragma solidity 0.8.0;\r\n\r\nimport \"./Store.sol\";\r\nimport \"./IUCPToken.sol\";\r\nimport \"@openzeppelin/contracts/token/ERC20/IERC20.sol\";\r\nimport \"@openzeppelin/contracts/access/Ownable.sol\";\r\n\r\ncontract AdminProtocol is Ownable{\r\n    uint private qtyStores;\r\n    uint immutable private TAX_TOKEN = 103000;\r\n    uint256 immutable private MINIMUN_TOKEN = 1 * 10 ** 18;   \r\n    address private UCP;\r\n    IERC20 private USDT;\r\n    IUCPToken private token;\r\n    \r\n        \r\n    struct LocalStore{\r\n        uint id;\r\n        address owner;\r\n        string name;\r\n        uint promotionsQty;\r\n        address contractAddress;\r\n    }\r\n    \r\n    struct Promotion{\r\n        uint id;\r\n        uint idStore;\r\n        string name;\r\n    }\r\n    \r\n    mapping(address => address) tokenPriceFeedMapping;\r\n    mapping(uint => LocalStore) stores;\r\n    mapping(address => mapping(uint => LocalStore)) storesByOwner;\r\n    mapping(address => uint) amountAllowedToMint;\r\n\r\n    constructor(address _USDT, address _token){\r\n        qtyStores = 1;\r\n        USDT = IERC20(_USDT);\r\n        token = IUCPToken(_token);\r\n    }\r\n\r\n    function updateAddressesAllowedToMint(uint256 _amount, uint _idStore) external {   \r\n        require(_amount > MINIMUN_TOKEN, \"Amount must be greater or equal than one\");  \r\n        require(isValidStore(_idStore, msg.sender), \"Only valid store can update\");       \r\n        LocalStore memory ls = stores[_idStore];\r\n        require(ls.contractAddress == msg.sender, \"Only valid store can call this function\");\r\n        token.setAddressAllowedToMint(msg.sender, _amount);        \r\n    }\r\n\r\n    function isValidStore(uint _idStore,address _storeContract) internal view returns(bool){\r\n        require(_idStore > 0, \"Id store must be greater than zero\");\r\n        LocalStore memory ls = stores[_idStore];\r\n        if(ls.id > 0 && ls.contractAddress ==  _storeContract){\r\n            return true;\r\n        }else{\r\n            return false;\r\n        }\r\n    }\r\n\r\n    function isValidPriceFeed(address _token) public view returns(bool){\r\n        if(tokenPriceFeedMapping[_token] != address(0)){\r\n            return true;\r\n        }else{\r\n            return false;\r\n        }        \r\n    }\r\n\r\n    function createStore(string memory _name) public{\r\n        Store cStore = new Store(msg.sender, qtyStores, _name, address(USDT), token, address(this));\r\n        require(address(cStore) != address(0), \"Contract must be deployed\");\r\n        LocalStore memory localStore = LocalStore(qtyStores, msg.sender, _name, 0, address(cStore));\r\n        stores[qtyStores] = localStore;\r\n        storesByOwner[msg.sender][qtyStores] = localStore;\r\n        qtyStores++;\r\n    }\r\n        \r\n    function addTokenToPriceFeed(address _token, address priceFeed)  public onlyOwner{\r\n        require(_token != address(0) && priceFeed != address(0), \"Must be valid address\");\r\n        tokenPriceFeedMapping[_token] =  priceFeed;        \r\n    }\r\n\r\n    function claimCashBack(uint _amount) public{\r\n        token.transferFrom(msg.sender, address(this), _amount);\r\n        token.burn(_amount);\r\n        USDT.transfer(msg.sender, _amount);        \r\n    }\r\n    \r\n    function calculatePricePerToken(uint256 _amount, address _token) public view returns(uint256){\r\n        require(isValidPriceFeed(_token) == true, \"Token is not valid\");\r\n        uint256 totalToPay =  (((_amount / 10) / (10 ** (18 - 6))) * (getTokenPriceByChainlink(_token) / (10 ** 2))) / (10 ** 6); \r\n        return (totalToPay * TAX_TOKEN) / 10 ** 5;      \r\n    } \r\n\r\n    function calculateQtyTokenClaim(uint256 _amount, address _token) public view returns(uint256){\r\n        //uint256 totalToPay =  (((_amount / 10) / (10 ** (18 - 6))) * (getTokenPriceByChainlink(_token) / (10 ** 2))) / (10 ** 6); \r\n        require(isValidPriceFeed(_token) == true, \"Token is not valid\");    \r\n        return ((_amount / (10 * 10 ** 18)) * getTokenPriceByChainlink(_token)) / (10 ** 2);               \r\n                      \r\n    }   \r\n\r\n    function getTokenPriceByChainlink(address _token) public view returns (uint256) {\r\n        address priceFeedAddress = tokenPriceFeedMapping[_token];\r\n        AggregatorV3Interface priceFeed = AggregatorV3Interface(\r\n            priceFeedAddress\r\n        );\r\n        (\r\n            uint80 roundID,\r\n            int256 price,\r\n            uint256 startedAt,\r\n            uint256 timeStamp,\r\n            uint80 answeredInRound\r\n        ) = priceFeed.latestRoundData();\r\n        return uint256(price);\r\n    }  \r\n\r\n    function getInfoStore(uint _id) public view returns(LocalStore memory store){\r\n        return stores[_id];\r\n    }\r\n    \r\n    function getStoreByOwner(address _owner, uint256 _idStore) internal view returns(LocalStore memory store){\r\n        return storesByOwner[_owner][_idStore];\r\n    }\r\n\r\n    function getAmountAllowedToMint(address _contract) public view returns(uint){\r\n        return amountAllowedToMint[_contract];\r\n    }\r\n\r\n    function getStoreQuantity() public view returns(uint){\r\n        return qtyStores;\r\n    }\r\n}",
  "sourcePath": "C:\\Users\\Gilberts\\Desktop\\eth\\cashback\\universal-cashback-protocol\\contracts\\AdminProtocol.sol",
  "compiler": {
    "name": "solc",
    "version": "0.8.0+commit.c7dfd78e.Emscripten.clang"
  },
  "schemaVersion": "3.3.4",
  "updatedAt": "2021-11-23T18:37:52.372Z",
  "devdoc": {
    "kind": "dev",
    "methods": {
      "owner()": {
        "details": "Returns the address of the current owner."
      },
      "renounceOwnership()": {
        "details": "Leaves the contract without owner. It will not be possible to call `onlyOwner` functions anymore. Can only be called by the current owner. NOTE: Renouncing ownership will leave the contract without an owner, thereby removing any functionality that is only available to the owner."
      },
      "transferOwnership(address)": {
        "details": "Transfers ownership of the contract to a new account (`newOwner`). Can only be called by the current owner."
      }
    },
    "version": 1
  },
  "userdoc": {
    "kind": "user",
    "methods": {},
    "version": 1
  }
}