{
  "contractName": "FabricStore",
  "abi": [
    {
      "inputs": [
        {
          "internalType": "uint256",
          "name": "numero",
          "type": "uint256"
        }
      ],
      "stateMutability": "nonpayable",
      "type": "constructor"
    },
    {
      "inputs": [
        {
          "internalType": "string",
          "name": "_name",
          "type": "string"
        }
      ],
      "name": "CreateStore",
      "outputs": [],
      "stateMutability": "nonpayable",
      "type": "function"
    },
    {
      "inputs": [
        {
          "internalType": "uint256",
          "name": "_id",
          "type": "uint256"
        }
      ],
      "name": "GetInfoStore",
      "outputs": [
        {
          "components": [
            {
              "internalType": "uint256",
              "name": "id",
              "type": "uint256"
            },
            {
              "internalType": "address",
              "name": "owner",
              "type": "address"
            },
            {
              "internalType": "string",
              "name": "name",
              "type": "string"
            },
            {
              "internalType": "uint256",
              "name": "promotionsQty",
              "type": "uint256"
            },
            {
              "internalType": "address",
              "name": "contractAddress",
              "type": "address"
            }
          ],
          "internalType": "struct FabricStore.LocalStore",
          "name": "store",
          "type": "tuple"
        }
      ],
      "stateMutability": "view",
      "type": "function"
    }
  ],
  "bytecode": "0x608060405234801561001057600080fd5b50604051612b2e380380612b2e83398181016040528101906100329190610055565b60016000819055505061009f565b60008151905061004f81610088565b92915050565b60006020828403121561006757600080fd5b600061007584828501610040565b91505092915050565b6000819050919050565b6100918161007e565b811461009c57600080fd5b50565b612a80806100ae6000396000f3fe60806040523480156200001157600080fd5b50600436106200003a5760003560e01c80638c007e48146200003f578063d271cd1b146200005f575b600080fd5b6200005d600480360381019062000057919062000701565b62000095565b005b6200007d600480360381019062000077919062000746565b620003d6565b6040516200008c919062000970565b60405180910390f35b60003360005483600260009054906101000a900473ffffffffffffffffffffffffffffffffffffffff16604051620000cd906200055f565b620000dc9493929190620008fa565b604051809103906000f080158015620000f9573d6000803e3d6000fd5b509050600073ffffffffffffffffffffffffffffffffffffffff168173ffffffffffffffffffffffffffffffffffffffff1614156200016f576040517f08c379a000000000000000000000000000000000000000000000000000000000815260040162000166906200094e565b60405180910390fd5b60006040518060a0016040528060005481526020013373ffffffffffffffffffffffffffffffffffffffff168152602001848152602001600081526020018373ffffffffffffffffffffffffffffffffffffffff1681525090508060036000805481526020019081526020016000206000820151816000015560208201518160010160006101000a81548173ffffffffffffffffffffffffffffffffffffffff021916908373ffffffffffffffffffffffffffffffffffffffff16021790555060408201518160020190805190602001906200024d9291906200056d565b506060820151816003015560808201518160040160006101000a81548173ffffffffffffffffffffffffffffffffffffffff021916908373ffffffffffffffffffffffffffffffffffffffff16021790555090505080600460003373ffffffffffffffffffffffffffffffffffffffff1673ffffffffffffffffffffffffffffffffffffffff1681526020019081526020016000206000805481526020019081526020016000206000820151816000015560208201518160010160006101000a81548173ffffffffffffffffffffffffffffffffffffffff021916908373ffffffffffffffffffffffffffffffffffffffff1602179055506040820151816002019080519060200190620003639291906200056d565b506060820151816003015560808201518160040160006101000a81548173ffffffffffffffffffffffffffffffffffffffff021916908373ffffffffffffffffffffffffffffffffffffffff160217905550905050600080815480929190620003cc9062000ae1565b9190505550505050565b620003e0620005fe565b600360008381526020019081526020016000206040518060a0016040529081600082015481526020016001820160009054906101000a900473ffffffffffffffffffffffffffffffffffffffff1673ffffffffffffffffffffffffffffffffffffffff1673ffffffffffffffffffffffffffffffffffffffff168152602001600282018054620004709062000aab565b80601f01602080910402602001604051908101604052809291908181526020018280546200049e9062000aab565b8015620004ef5780601f10620004c357610100808354040283529160200191620004ef565b820191906000526020600020905b815481529060010190602001808311620004d157829003601f168201915b50505050508152602001600382015481526020016004820160009054906101000a900473ffffffffffffffffffffffffffffffffffffffff1673ffffffffffffffffffffffffffffffffffffffff1673ffffffffffffffffffffffffffffffffffffffff16815250509050919050565b611e638062000be883390190565b8280546200057b9062000aab565b90600052602060002090601f0160209004810192826200059f5760008555620005eb565b82601f10620005ba57805160ff1916838001178555620005eb565b82800160010185558215620005eb579182015b82811115620005ea578251825591602001919060010190620005cd565b5b509050620005fa919062000659565b5090565b6040518060a0016040528060008152602001600073ffffffffffffffffffffffffffffffffffffffff1681526020016060815260200160008152602001600073ffffffffffffffffffffffffffffffffffffffff1681525090565b5b80821115620006745760008160009055506001016200065a565b5090565b60006200068f6200068984620009c8565b62000994565b905082815260208101848484011115620006a857600080fd5b620006b584828562000a66565b509392505050565b600082601f830112620006cf57600080fd5b8135620006e184826020860162000678565b91505092915050565b600081359050620006fb8162000bcd565b92915050565b6000602082840312156200071457600080fd5b600082013567ffffffffffffffff8111156200072f57600080fd5b6200073d84828501620006bd565b91505092915050565b6000602082840312156200075957600080fd5b60006200076984828501620006ea565b91505092915050565b6200077d8162000a28565b82525050565b6200078e8162000a28565b82525050565b6000620007a182620009fb565b620007ad818562000a06565b9350620007bf81856020860162000a75565b620007ca8162000bbc565b840191505092915050565b6000620007e282620009fb565b620007ee818562000a17565b93506200080081856020860162000a75565b6200080b8162000bbc565b840191505092915050565b60006200082560198362000a17565b91507f436f6e7472616374206d757374206265206465706c6f796564000000000000006000830152602082019050919050565b600060a083016000830151620008726000860182620008d8565b50602083015162000887602086018262000772565b5060408301518482036040860152620008a1828262000794565b9150506060830151620008b86060860182620008d8565b506080830151620008cd608086018262000772565b508091505092915050565b620008e38162000a5c565b82525050565b620008f48162000a5c565b82525050565b600060808201905062000911600083018762000783565b620009206020830186620008e9565b8181036040830152620009348185620007d5565b905062000945606083018462000783565b95945050505050565b60006020820190508181036000830152620009698162000816565b9050919050565b600060208201905081810360008301526200098c818462000858565b905092915050565b6000604051905081810181811067ffffffffffffffff82111715620009be57620009bd62000b8d565b5b8060405250919050565b600067ffffffffffffffff821115620009e657620009e562000b8d565b5b601f19601f8301169050602081019050919050565b600081519050919050565b600082825260208201905092915050565b600082825260208201905092915050565b600062000a358262000a3c565b9050919050565b600073ffffffffffffffffffffffffffffffffffffffff82169050919050565b6000819050919050565b82818337600083830152505050565b60005b8381101562000a9557808201518184015260208101905062000a78565b8381111562000aa5576000848401525b50505050565b6000600282049050600182168062000ac457607f821691505b6020821081141562000adb5762000ada62000b5e565b5b50919050565b600062000aee8262000a5c565b91507fffffffffffffffffffffffffffffffffffffffffffffffffffffffffffffffff82141562000b245762000b2362000b2f565b5b600182019050919050565b7f4e487b7100000000000000000000000000000000000000000000000000000000600052601160045260246000fd5b7f4e487b7100000000000000000000000000000000000000000000000000000000600052602260045260246000fd5b7f4e487b7100000000000000000000000000000000000000000000000000000000600052604160045260246000fd5b6000601f19601f8301169050919050565b62000bd88162000a5c565b811462000be457600080fd5b5056fe60806040523480156200001157600080fd5b5060405162001e6338038062001e638339818101604052810190620000379190620002c2565b600073ffffffffffffffffffffffffffffffffffffffff168473ffffffffffffffffffffffffffffffffffffffff1614158015620000755750600083115b620000b7576040517f08c379a0000000000000000000000000000000000000000000000000000000008152600401620000ae90620003af565b60405180910390fd5b82600081905550600180819055508160049080519060200190620000dd92919062000172565b5083600560006101000a81548173ffffffffffffffffffffffffffffffffffffffff021916908373ffffffffffffffffffffffffffffffffffffffff160217905550600060038190555080600660006101000a81548173ffffffffffffffffffffffffffffffffffffffff021916908373ffffffffffffffffffffffffffffffffffffffff1602179055505050505062000585565b8280546200018090620004bd565b90600052602060002090601f016020900481019282620001a45760008555620001f0565b82601f10620001bf57805160ff1916838001178555620001f0565b82800160010185558215620001f0579182015b82811115620001ef578251825591602001919060010190620001d2565b5b509050620001ff919062000203565b5090565b5b808211156200021e57600081600090555060010162000204565b5090565b600062000239620002338462000405565b620003d1565b9050828152602081018484840111156200025257600080fd5b6200025f84828562000487565b509392505050565b600081519050620002788162000551565b92915050565b600082601f8301126200029057600080fd5b8151620002a284826020860162000222565b91505092915050565b600081519050620002bc816200056b565b92915050565b60008060008060808587031215620002d957600080fd5b6000620002e98782880162000267565b9450506020620002fc87828801620002ab565b935050604085015167ffffffffffffffff8111156200031a57600080fd5b62000328878288016200027e565b92505060606200033b8782880162000267565b91505092959194509250565b600062000356603f8362000438565b91507f61646472657373206d7573742062652076616c696420616e64204964206d757360008301527f7420626520657175616c206f722067726561746572207468616e207a65726f006020830152604082019050919050565b60006020820190508181036000830152620003ca8162000347565b9050919050565b6000604051905081810181811067ffffffffffffffff82111715620003fb57620003fa62000522565b5b8060405250919050565b600067ffffffffffffffff82111562000423576200042262000522565b5b601f19601f8301169050602081019050919050565b600082825260208201905092915050565b600062000456826200045d565b9050919050565b600073ffffffffffffffffffffffffffffffffffffffff82169050919050565b6000819050919050565b60005b83811015620004a75780820151818401526020810190506200048a565b83811115620004b7576000848401525b50505050565b60006002820490506001821680620004d657607f821691505b60208210811415620004ed57620004ec620004f3565b5b50919050565b7f4e487b7100000000000000000000000000000000000000000000000000000000600052602260045260246000fd5b7f4e487b7100000000000000000000000000000000000000000000000000000000600052604160045260246000fd5b6200055c8162000449565b81146200056857600080fd5b50565b62000576816200047d565b81146200058257600080fd5b50565b6118ce80620005956000396000f3fe608060405234801561001057600080fd5b506004361061009e5760003560e01c80638da5cb5b116100665780638da5cb5b1461013157806398bff4231461014f578063a6fa60491461017f578063b696e73d146101af578063c00c0cd6146101cb5761009e565b8063041aa115146100a35780631f9491d7146100d35780632d296bf1146100dd5780634522bcad146100f95780637c04593014610115575b600080fd5b6100bd60048036038101906100b89190610f26565b6101e7565b6040516100ca91906114b8565b60405180910390f35b6100db610374565b005b6100f760048036038101906100f29190610ff2565b610376565b005b610113600480360381019061010e919061101b565b61063d565b005b61012f600480360381019061012a9190610f8b565b61072f565b005b61013961086d565b6040516101469190611414565b60405180910390f35b61016960048036038101906101649190610ff2565b610897565b60405161017691906115d3565b60405180910390f35b61019960048036038101906101949190610ff2565b610a04565b6040516101a691906115f5565b60405180910390f35b6101c960048036038101906101c4919061101b565b610afa565b005b6101e560048036038101906101e0919061101b565b610c4e565b005b6000600560009054906101000a900473ffffffffffffffffffffffffffffffffffffffff1673ffffffffffffffffffffffffffffffffffffffff163373ffffffffffffffffffffffffffffffffffffffff161461024357600080fd5b600073ffffffffffffffffffffffffffffffffffffffff168373ffffffffffffffffffffffffffffffffffffffff16141580156102ad5750600073ffffffffffffffffffffffffffffffffffffffff168273ffffffffffffffffffffffffffffffffffffffff1614155b6102ec576040517f08c379a00000000000000000000000000000000000000000000000000000000081526004016102e390611553565b60405180910390fd5b81600860008573ffffffffffffffffffffffffffffffffffffffff1673ffffffffffffffffffffffffffffffffffffffff16815260200190815260200160002060006101000a81548173ffffffffffffffffffffffffffffffffffffffff021916908373ffffffffffffffffffffffffffffffffffffffff1602179055506001905092915050565b565b600660009054906101000a900473ffffffffffffffffffffffffffffffffffffffff1673ffffffffffffffffffffffffffffffffffffffff1663a457c2d73060006040518363ffffffff1660e01b81526004016103d4929190611466565b602060405180830381600087803b1580156103ee57600080fd5b505af1158015610402573d6000803e3d6000fd5b505050506040513d601f19601f820116820180604052508101906104269190610f62565b50600660009054906101000a900473ffffffffffffffffffffffffffffffffffffffff1673ffffffffffffffffffffffffffffffffffffffff16633950935130836040518363ffffffff1660e01b815260040161048492919061148f565b602060405180830381600087803b15801561049e57600080fd5b505af11580156104b2573d6000803e3d6000fd5b505050506040513d601f19601f820116820180604052508101906104d69190610f62565b50600660009054906101000a900473ffffffffffffffffffffffffffffffffffffffff1673ffffffffffffffffffffffffffffffffffffffff166323b872dd3330846040518463ffffffff1660e01b81526004016105369392919061142f565b602060405180830381600087803b15801561055057600080fd5b505af1158015610564573d6000803e3d6000fd5b505050506040513d601f19601f820116820180604052508101906105889190610f62565b50600660009054906101000a900473ffffffffffffffffffffffffffffffffffffffff1673ffffffffffffffffffffffffffffffffffffffff1663a457c2d73060006040518363ffffffff1660e01b81526004016105e7929190611466565b602060405180830381600087803b15801561060157600080fd5b505af1158015610615573d6000803e3d6000fd5b505050506040513d601f19601f820116820180604052508101906106399190610f62565b5050565b600560009054906101000a900473ffffffffffffffffffffffffffffffffffffffff1673ffffffffffffffffffffffffffffffffffffffff163373ffffffffffffffffffffffffffffffffffffffff161461069757600080fd5b6040518060800160405280600154815260200183815260200182815260200160011515815250600a6000600154815260200190815260200160002060008201518160000155602082015181600101556040820151816002015560608201518160030160006101000a81548160ff021916908315150217905550905050600160008154809291906107269061176c565b91905055505050565b600560009054906101000a900473ffffffffffffffffffffffffffffffffffffffff1673ffffffffffffffffffffffffffffffffffffffff163373ffffffffffffffffffffffffffffffffffffffff161461078957600080fd5b6000821015801561079b575060008110155b6107da576040517f08c379a00000000000000000000000000000000000000000000000000000000081526004016107d190611593565b60405180910390fd5b6040518060800160405280600254815260200184815260200183815260200182815250600960006002548152602001908152602001600020600082015181600001556020820151816001019080519060200190610838929190610d8a565b506040820151816002015560608201518160030155905050600260008154809291906108639061176c565b9190505550505050565b6000600560009054906101000a900473ffffffffffffffffffffffffffffffffffffffff16905090565b61089f610e10565b600082116108e2576040517f08c379a00000000000000000000000000000000000000000000000000000000081526004016108d990611513565b60405180910390fd5b6000600960008481526020019081526020016000206040518060800160405290816000820154815260200160018201805461091c9061173a565b80601f01602080910402602001604051908101604052809291908181526020018280546109489061173a565b80156109955780601f1061096a57610100808354040283529160200191610995565b820191906000526020600020905b81548152906001019060200180831161097857829003601f168201915b5050505050815260200160028201548152602001600382015481525050905060008160000151116109fb576040517f08c379a00000000000000000000000000000000000000000000000000000000081526004016109f2906114d3565b60405180910390fd5b80915050919050565b610a0c610e38565b60008211610a4f576040517f08c379a0000000000000000000000000000000000000000000000000000000008152600401610a46906114f3565b60405180910390fd5b6000600a60008481526020019081526020016000206040518060800160405290816000820154815260200160018201548152602001600282015481526020016003820160009054906101000a900460ff16151515158152505090506000816000015111610af1576040517f08c379a0000000000000000000000000000000000000000000000000000000008152600401610ae890611533565b60405180910390fd5b80915050919050565b600560009054906101000a900473ffffffffffffffffffffffffffffffffffffffff1673ffffffffffffffffffffffffffffffffffffffff163373ffffffffffffffffffffffffffffffffffffffff1614610b5457600080fd5b600082118015610b645750600081115b610ba3576040517f08c379a0000000000000000000000000000000000000000000000000000000008152600401610b9a906115b3565b60405180910390fd5b6000610bae82610a04565b90506000610bbb84610897565b905060036000815480929190610bd09061176c565b919050555060405180604001604052808260000151815260200160011515815250600b600060035481526020019081526020016000206000846000015181526020019081526020016000206000820151816000015560208201518160010160006101000a81548160ff02191690831515021790555090505050505050565b600560009054906101000a900473ffffffffffffffffffffffffffffffffffffffff1673ffffffffffffffffffffffffffffffffffffffff163373ffffffffffffffffffffffffffffffffffffffff1614610ca857600080fd5b600082118015610cb85750600081115b610cf7576040517f08c379a0000000000000000000000000000000000000000000000000000000008152600401610cee90611573565b60405180910390fd5b6000610d0282610a04565b90506000610d0f84610897565b905060405180604001604052808260000151815260200160001515815250600b600060035481526020019081526020016000206000846000015181526020019081526020016000206000820151816000015560208201518160010160006101000a81548160ff02191690831515021790555090505050505050565b828054610d969061173a565b90600052602060002090601f016020900481019282610db85760008555610dff565b82601f10610dd157805160ff1916838001178555610dff565b82800160010185558215610dff579182015b82811115610dfe578251825591602001919060010190610de3565b5b509050610e0c9190610e62565b5090565b6040518060800160405280600081526020016060815260200160008152602001600081525090565b60405180608001604052806000815260200160008152602001600081526020016000151581525090565b5b80821115610e7b576000816000905550600101610e63565b5090565b6000610e92610e8d84611641565b611610565b905082815260208101848484011115610eaa57600080fd5b610eb58482856116f8565b509392505050565b600081359050610ecc81611853565b92915050565b600081519050610ee18161186a565b92915050565b600082601f830112610ef857600080fd5b8135610f08848260208601610e7f565b91505092915050565b600081359050610f2081611881565b92915050565b60008060408385031215610f3957600080fd5b6000610f4785828601610ebd565b9250506020610f5885828601610ebd565b9150509250929050565b600060208284031215610f7457600080fd5b6000610f8284828501610ed2565b91505092915050565b600080600060608486031215610fa057600080fd5b600084013567ffffffffffffffff811115610fba57600080fd5b610fc686828701610ee7565b9350506020610fd786828701610f11565b9250506040610fe886828701610f11565b9150509250925092565b60006020828403121561100457600080fd5b600061101284828501610f11565b91505092915050565b6000806040838503121561102e57600080fd5b600061103c85828601610f11565b925050602061104d85828601610f11565b9150509250929050565b6110608161169e565b82525050565b61106f816116b0565b82525050565b61107e816116b0565b82525050565b61108d816116e6565b82525050565b600061109e82611671565b6110a8818561167c565b93506110b8818560208601611707565b6110c181611842565b840191505092915050565b60006110d960168361168d565b91507f50726f6475637420646f6573206e6f74206578697374000000000000000000006000830152602082019050919050565b6000611119601c8361168d565b91507f4964206d7573742062652067726561746572207468616e207a65726f000000006000830152602082019050919050565b6000611159601d8361168d565b91507f4964206d757374206265206772656174686572207468616e207a65726f0000006000830152602082019050919050565b600061119960188361168d565b91507f50726f6d6f74696f6e20646f6573206e6f7420657869737400000000000000006000830152602082019050919050565b60006111d960178361168d565b91507f4d7573742062652076616c6964206164647265737365730000000000000000006000830152602082019050919050565b600061121960228361168d565b91507f4d75737420626520657175616c206f722067726561746572207468616e203c6560008301527f726f0000000000000000000000000000000000000000000000000000000000006020830152604082019050919050565b600061127f60498361168d565b91507f50726963652070726f6475637420616e6420746f6b656e7320746f206265206160008301527f7369676e6564206d75737420626520657175616c206f7220677265617465722060208301527f7468616e207a65726f00000000000000000000000000000000000000000000006040830152606082019050919050565b600061130b60168361168d565b91507f446562656e20736572206d61796f722061206365726f000000000000000000006000830152602082019050919050565b600060808301600083015161135660008601826113f6565b506020830151848203602086015261136e8282611093565b915050604083015161138360408601826113f6565b50606083015161139660608601826113f6565b508091505092915050565b6080820160008201516113b760008501826113f6565b5060208201516113ca60208501826113f6565b5060408201516113dd60408501826113f6565b5060608201516113f06060850182611066565b50505050565b6113ff816116dc565b82525050565b61140e816116dc565b82525050565b60006020820190506114296000830184611057565b92915050565b60006060820190506114446000830186611057565b6114516020830185611057565b61145e6040830184611405565b949350505050565b600060408201905061147b6000830185611057565b6114886020830184611084565b9392505050565b60006040820190506114a46000830185611057565b6114b16020830184611405565b9392505050565b60006020820190506114cd6000830184611075565b92915050565b600060208201905081810360008301526114ec816110cc565b9050919050565b6000602082019050818103600083015261150c8161110c565b9050919050565b6000602082019050818103600083015261152c8161114c565b9050919050565b6000602082019050818103600083015261154c8161118c565b9050919050565b6000602082019050818103600083015261156c816111cc565b9050919050565b6000602082019050818103600083015261158c8161120c565b9050919050565b600060208201905081810360008301526115ac81611272565b9050919050565b600060208201905081810360008301526115cc816112fe565b9050919050565b600060208201905081810360008301526115ed818461133e565b905092915050565b600060808201905061160a60008301846113a1565b92915050565b6000604051905081810181811067ffffffffffffffff8211171561163757611636611813565b5b8060405250919050565b600067ffffffffffffffff82111561165c5761165b611813565b5b601f19601f8301169050602081019050919050565b600081519050919050565b600082825260208201905092915050565b600082825260208201905092915050565b60006116a9826116bc565b9050919050565b60008115159050919050565b600073ffffffffffffffffffffffffffffffffffffffff82169050919050565b6000819050919050565b60006116f1826116dc565b9050919050565b82818337600083830152505050565b60005b8381101561172557808201518184015260208101905061170a565b83811115611734576000848401525b50505050565b6000600282049050600182168061175257607f821691505b60208210811415611766576117656117e4565b5b50919050565b6000611777826116dc565b91507fffffffffffffffffffffffffffffffffffffffffffffffffffffffffffffffff8214156117aa576117a96117b5565b5b600182019050919050565b7f4e487b7100000000000000000000000000000000000000000000000000000000600052601160045260246000fd5b7f4e487b7100000000000000000000000000000000000000000000000000000000600052602260045260246000fd5b7f4e487b7100000000000000000000000000000000000000000000000000000000600052604160045260246000fd5b6000601f19601f8301169050919050565b61185c8161169e565b811461186757600080fd5b50565b611873816116b0565b811461187e57600080fd5b50565b61188a816116dc565b811461189557600080fd5b5056fea2646970667358221220ecc26edaac0763fdc37dcbb08af1e20a4a51b0e590b96223c4e1ca2bdb7a5d9d64736f6c63430008000033a2646970667358221220e69a8aebbdf58ea28fbbf48e2991ed9312632c6011375e4f507d24d64800451a64736f6c63430008000033",
  "immutableReferences": {},
  "source": "pragma solidity 0.8.0;\r\n\r\nimport './Store.sol';\r\nimport \"@openzeppelin/contracts/token/ERC20/IERC20.sol\";\r\n\r\ncontract FabricStore{\r\n    uint private qtyStores;\r\n    address private UCP;\r\n    IERC20 private USDT;\r\n    \r\n\r\n    \r\n    struct LocalStore{\r\n        uint id;\r\n        address owner;\r\n        string name;\r\n        uint promotionsQty;\r\n        address contractAddress;\r\n    }\r\n    \r\n    struct Promotion{\r\n        uint id;\r\n        uint idStore;\r\n        string name;\r\n    }\r\n    \r\n    mapping(uint => LocalStore) stores;\r\n    mapping(address => mapping(uint => LocalStore)) storesByOwner;\r\n\r\n    constructor(uint256 numero){\r\n        qtyStores = 1;\r\n        //USDT = IERC20(_USDT);\r\n    }\r\n\r\n    function CreateStore(string memory _name) public {\r\n        Store cStore = new Store(msg.sender, qtyStores, _name, address(USDT));\r\n        require(address(cStore) != address(0), \"Contract must be deployed\");\r\n        LocalStore memory localStore = LocalStore(qtyStores, msg.sender, _name, 0, address(cStore));\r\n        stores[qtyStores] = localStore;\r\n        storesByOwner[msg.sender][qtyStores] = localStore;\r\n        qtyStores++;\r\n    }\r\n\r\n    function GetInfoStore(uint _id) public view returns(LocalStore memory store){\r\n        return stores[_id];\r\n    }\r\n    \r\n    function GetStoreByOwner(address _owner, uint256 _idStore) internal view returns(LocalStore memory store){\r\n        return storesByOwner[_owner][_idStore];\r\n    }      \r\n    \r\n}",
  "sourcePath": "D:/Chainlink/Hackathon Chainlink/protocol/truffle-project/contracts/AdminStore.sol",
  "compiler": {
    "name": "solc",
    "version": "0.8.0+commit.c7dfd78e.Emscripten.clang"
  },
  "schemaVersion": "3.3.4",
  "updatedAt": "2021-11-12T00:11:38.017Z",
  "devdoc": {
    "kind": "dev",
    "methods": {},
    "version": 1
  },
  "userdoc": {
    "kind": "user",
    "methods": {},
    "version": 1
  }
}