{
  "contractName": "Store",
  "abi": [
    {
      "inputs": [
        {
          "internalType": "address",
          "name": "_owner",
          "type": "address"
        },
        {
          "internalType": "uint256",
          "name": "_id",
          "type": "uint256"
        },
        {
          "internalType": "string",
          "name": "_nameStore",
          "type": "string"
        },
        {
          "internalType": "address",
          "name": "token",
          "type": "address"
        }
      ],
      "stateMutability": "nonpayable",
      "type": "constructor"
    },
    {
      "inputs": [
        {
          "internalType": "string",
          "name": "_SKU",
          "type": "string"
        },
        {
          "internalType": "uint256",
          "name": "_priceProduct",
          "type": "uint256"
        },
        {
          "internalType": "uint256",
          "name": "_tokensPerProduct",
          "type": "uint256"
        }
      ],
      "name": "CreateProduct",
      "outputs": [],
      "stateMutability": "nonpayable",
      "type": "function"
    },
    {
      "inputs": [
        {
          "internalType": "uint256",
          "name": "amount",
          "type": "uint256"
        }
      ],
      "name": "buyToken",
      "outputs": [],
      "stateMutability": "nonpayable",
      "type": "function"
    },
    {
      "inputs": [
        {
          "internalType": "uint256",
          "name": "_startDate",
          "type": "uint256"
        },
        {
          "internalType": "uint256",
          "name": "_endDate",
          "type": "uint256"
        }
      ],
      "name": "CreatePromotion",
      "outputs": [],
      "stateMutability": "nonpayable",
      "type": "function"
    },
    {
      "inputs": [
        {
          "internalType": "uint256",
          "name": "_idProduct",
          "type": "uint256"
        },
        {
          "internalType": "uint256",
          "name": "_idPromotion",
          "type": "uint256"
        }
      ],
      "name": "AssignProductToPromotion",
      "outputs": [],
      "stateMutability": "nonpayable",
      "type": "function"
    },
    {
      "inputs": [
        {
          "internalType": "uint256",
          "name": "_idProduct",
          "type": "uint256"
        },
        {
          "internalType": "uint256",
          "name": "_idPromotion",
          "type": "uint256"
        }
      ],
      "name": "UnAssignProductToPromotion",
      "outputs": [],
      "stateMutability": "nonpayable",
      "type": "function"
    },
    {
      "inputs": [
        {
          "internalType": "uint256",
          "name": "_id",
          "type": "uint256"
        }
      ],
      "name": "GetPromotionById",
      "outputs": [
        {
          "components": [
            {
              "internalType": "uint256",
              "name": "id",
              "type": "uint256"
            },
            {
              "internalType": "uint256",
              "name": "startDate",
              "type": "uint256"
            },
            {
              "internalType": "uint256",
              "name": "endDate",
              "type": "uint256"
            },
            {
              "internalType": "bool",
              "name": "active",
              "type": "bool"
            }
          ],
          "internalType": "struct Store.Promotion",
          "name": "",
          "type": "tuple"
        }
      ],
      "stateMutability": "view",
      "type": "function"
    },
    {
      "inputs": [
        {
          "internalType": "uint256",
          "name": "_id",
          "type": "uint256"
        }
      ],
      "name": "GetProductById",
      "outputs": [
        {
          "components": [
            {
              "internalType": "uint256",
              "name": "id",
              "type": "uint256"
            },
            {
              "internalType": "string",
              "name": "SKU",
              "type": "string"
            },
            {
              "internalType": "uint256",
              "name": "price",
              "type": "uint256"
            },
            {
              "internalType": "uint256",
              "name": "tokenGivens",
              "type": "uint256"
            }
          ],
          "internalType": "struct Store.Product",
          "name": "",
          "type": "tuple"
        }
      ],
      "stateMutability": "view",
      "type": "function"
    },
    {
      "inputs": [],
      "name": "BuyProduct",
      "outputs": [],
      "stateMutability": "nonpayable",
      "type": "function"
    },
    {
      "inputs": [
        {
          "internalType": "address",
          "name": "token",
          "type": "address"
        },
        {
          "internalType": "address",
          "name": "priceFeed",
          "type": "address"
        }
      ],
      "name": "addTokenToPriceFeed",
      "outputs": [
        {
          "internalType": "bool",
          "name": "",
          "type": "bool"
        }
      ],
      "stateMutability": "nonpayable",
      "type": "function"
    },
    {
      "inputs": [],
      "name": "owner",
      "outputs": [
        {
          "internalType": "address",
          "name": "",
          "type": "address"
        }
      ],
      "stateMutability": "view",
      "type": "function"
    }
  ],
  "bytecode": "0x60806040523480156200001157600080fd5b5060405162001e6338038062001e638339818101604052810190620000379190620002c2565b600073ffffffffffffffffffffffffffffffffffffffff168473ffffffffffffffffffffffffffffffffffffffff1614158015620000755750600083115b620000b7576040517f08c379a0000000000000000000000000000000000000000000000000000000008152600401620000ae90620003af565b60405180910390fd5b82600081905550600180819055508160049080519060200190620000dd92919062000172565b5083600560006101000a81548173ffffffffffffffffffffffffffffffffffffffff021916908373ffffffffffffffffffffffffffffffffffffffff160217905550600060038190555080600660006101000a81548173ffffffffffffffffffffffffffffffffffffffff021916908373ffffffffffffffffffffffffffffffffffffffff1602179055505050505062000585565b8280546200018090620004bd565b90600052602060002090601f016020900481019282620001a45760008555620001f0565b82601f10620001bf57805160ff1916838001178555620001f0565b82800160010185558215620001f0579182015b82811115620001ef578251825591602001919060010190620001d2565b5b509050620001ff919062000203565b5090565b5b808211156200021e57600081600090555060010162000204565b5090565b600062000239620002338462000405565b620003d1565b9050828152602081018484840111156200025257600080fd5b6200025f84828562000487565b509392505050565b600081519050620002788162000551565b92915050565b600082601f8301126200029057600080fd5b8151620002a284826020860162000222565b91505092915050565b600081519050620002bc816200056b565b92915050565b60008060008060808587031215620002d957600080fd5b6000620002e98782880162000267565b9450506020620002fc87828801620002ab565b935050604085015167ffffffffffffffff8111156200031a57600080fd5b62000328878288016200027e565b92505060606200033b8782880162000267565b91505092959194509250565b600062000356603f8362000438565b91507f61646472657373206d7573742062652076616c696420616e64204964206d757360008301527f7420626520657175616c206f722067726561746572207468616e207a65726f006020830152604082019050919050565b60006020820190508181036000830152620003ca8162000347565b9050919050565b6000604051905081810181811067ffffffffffffffff82111715620003fb57620003fa62000522565b5b8060405250919050565b600067ffffffffffffffff82111562000423576200042262000522565b5b601f19601f8301169050602081019050919050565b600082825260208201905092915050565b600062000456826200045d565b9050919050565b600073ffffffffffffffffffffffffffffffffffffffff82169050919050565b6000819050919050565b60005b83811015620004a75780820151818401526020810190506200048a565b83811115620004b7576000848401525b50505050565b60006002820490506001821680620004d657607f821691505b60208210811415620004ed57620004ec620004f3565b5b50919050565b7f4e487b7100000000000000000000000000000000000000000000000000000000600052602260045260246000fd5b7f4e487b7100000000000000000000000000000000000000000000000000000000600052604160045260246000fd5b6200055c8162000449565b81146200056857600080fd5b50565b62000576816200047d565b81146200058257600080fd5b50565b6118ce80620005956000396000f3fe608060405234801561001057600080fd5b506004361061009e5760003560e01c80638da5cb5b116100665780638da5cb5b1461013157806398bff4231461014f578063a6fa60491461017f578063b696e73d146101af578063c00c0cd6146101cb5761009e565b8063041aa115146100a35780631f9491d7146100d35780632d296bf1146100dd5780634522bcad146100f95780637c04593014610115575b600080fd5b6100bd60048036038101906100b89190610f26565b6101e7565b6040516100ca91906114b8565b60405180910390f35b6100db610374565b005b6100f760048036038101906100f29190610ff2565b610376565b005b610113600480360381019061010e919061101b565b61063d565b005b61012f600480360381019061012a9190610f8b565b61072f565b005b61013961086d565b6040516101469190611414565b60405180910390f35b61016960048036038101906101649190610ff2565b610897565b60405161017691906115d3565b60405180910390f35b61019960048036038101906101949190610ff2565b610a04565b6040516101a691906115f5565b60405180910390f35b6101c960048036038101906101c4919061101b565b610afa565b005b6101e560048036038101906101e0919061101b565b610c4e565b005b6000600560009054906101000a900473ffffffffffffffffffffffffffffffffffffffff1673ffffffffffffffffffffffffffffffffffffffff163373ffffffffffffffffffffffffffffffffffffffff161461024357600080fd5b600073ffffffffffffffffffffffffffffffffffffffff168373ffffffffffffffffffffffffffffffffffffffff16141580156102ad5750600073ffffffffffffffffffffffffffffffffffffffff168273ffffffffffffffffffffffffffffffffffffffff1614155b6102ec576040517f08c379a00000000000000000000000000000000000000000000000000000000081526004016102e390611553565b60405180910390fd5b81600860008573ffffffffffffffffffffffffffffffffffffffff1673ffffffffffffffffffffffffffffffffffffffff16815260200190815260200160002060006101000a81548173ffffffffffffffffffffffffffffffffffffffff021916908373ffffffffffffffffffffffffffffffffffffffff1602179055506001905092915050565b565b600660009054906101000a900473ffffffffffffffffffffffffffffffffffffffff1673ffffffffffffffffffffffffffffffffffffffff1663a457c2d73060006040518363ffffffff1660e01b81526004016103d4929190611466565b602060405180830381600087803b1580156103ee57600080fd5b505af1158015610402573d6000803e3d6000fd5b505050506040513d601f19601f820116820180604052508101906104269190610f62565b50600660009054906101000a900473ffffffffffffffffffffffffffffffffffffffff1673ffffffffffffffffffffffffffffffffffffffff16633950935130836040518363ffffffff1660e01b815260040161048492919061148f565b602060405180830381600087803b15801561049e57600080fd5b505af11580156104b2573d6000803e3d6000fd5b505050506040513d601f19601f820116820180604052508101906104d69190610f62565b50600660009054906101000a900473ffffffffffffffffffffffffffffffffffffffff1673ffffffffffffffffffffffffffffffffffffffff166323b872dd3330846040518463ffffffff1660e01b81526004016105369392919061142f565b602060405180830381600087803b15801561055057600080fd5b505af1158015610564573d6000803e3d6000fd5b505050506040513d601f19601f820116820180604052508101906105889190610f62565b50600660009054906101000a900473ffffffffffffffffffffffffffffffffffffffff1673ffffffffffffffffffffffffffffffffffffffff1663a457c2d73060006040518363ffffffff1660e01b81526004016105e7929190611466565b602060405180830381600087803b15801561060157600080fd5b505af1158015610615573d6000803e3d6000fd5b505050506040513d601f19601f820116820180604052508101906106399190610f62565b5050565b600560009054906101000a900473ffffffffffffffffffffffffffffffffffffffff1673ffffffffffffffffffffffffffffffffffffffff163373ffffffffffffffffffffffffffffffffffffffff161461069757600080fd5b6040518060800160405280600154815260200183815260200182815260200160011515815250600a6000600154815260200190815260200160002060008201518160000155602082015181600101556040820151816002015560608201518160030160006101000a81548160ff021916908315150217905550905050600160008154809291906107269061176c565b91905055505050565b600560009054906101000a900473ffffffffffffffffffffffffffffffffffffffff1673ffffffffffffffffffffffffffffffffffffffff163373ffffffffffffffffffffffffffffffffffffffff161461078957600080fd5b6000821015801561079b575060008110155b6107da576040517f08c379a00000000000000000000000000000000000000000000000000000000081526004016107d190611593565b60405180910390fd5b6040518060800160405280600254815260200184815260200183815260200182815250600960006002548152602001908152602001600020600082015181600001556020820151816001019080519060200190610838929190610d8a565b506040820151816002015560608201518160030155905050600260008154809291906108639061176c565b9190505550505050565b6000600560009054906101000a900473ffffffffffffffffffffffffffffffffffffffff16905090565b61089f610e10565b600082116108e2576040517f08c379a00000000000000000000000000000000000000000000000000000000081526004016108d990611513565b60405180910390fd5b6000600960008481526020019081526020016000206040518060800160405290816000820154815260200160018201805461091c9061173a565b80601f01602080910402602001604051908101604052809291908181526020018280546109489061173a565b80156109955780601f1061096a57610100808354040283529160200191610995565b820191906000526020600020905b81548152906001019060200180831161097857829003601f168201915b5050505050815260200160028201548152602001600382015481525050905060008160000151116109fb576040517f08c379a00000000000000000000000000000000000000000000000000000000081526004016109f2906114d3565b60405180910390fd5b80915050919050565b610a0c610e38565b60008211610a4f576040517f08c379a0000000000000000000000000000000000000000000000000000000008152600401610a46906114f3565b60405180910390fd5b6000600a60008481526020019081526020016000206040518060800160405290816000820154815260200160018201548152602001600282015481526020016003820160009054906101000a900460ff16151515158152505090506000816000015111610af1576040517f08c379a0000000000000000000000000000000000000000000000000000000008152600401610ae890611533565b60405180910390fd5b80915050919050565b600560009054906101000a900473ffffffffffffffffffffffffffffffffffffffff1673ffffffffffffffffffffffffffffffffffffffff163373ffffffffffffffffffffffffffffffffffffffff1614610b5457600080fd5b600082118015610b645750600081115b610ba3576040517f08c379a0000000000000000000000000000000000000000000000000000000008152600401610b9a906115b3565b60405180910390fd5b6000610bae82610a04565b90506000610bbb84610897565b905060036000815480929190610bd09061176c565b919050555060405180604001604052808260000151815260200160011515815250600b600060035481526020019081526020016000206000846000015181526020019081526020016000206000820151816000015560208201518160010160006101000a81548160ff02191690831515021790555090505050505050565b600560009054906101000a900473ffffffffffffffffffffffffffffffffffffffff1673ffffffffffffffffffffffffffffffffffffffff163373ffffffffffffffffffffffffffffffffffffffff1614610ca857600080fd5b600082118015610cb85750600081115b610cf7576040517f08c379a0000000000000000000000000000000000000000000000000000000008152600401610cee90611573565b60405180910390fd5b6000610d0282610a04565b90506000610d0f84610897565b905060405180604001604052808260000151815260200160001515815250600b600060035481526020019081526020016000206000846000015181526020019081526020016000206000820151816000015560208201518160010160006101000a81548160ff02191690831515021790555090505050505050565b828054610d969061173a565b90600052602060002090601f016020900481019282610db85760008555610dff565b82601f10610dd157805160ff1916838001178555610dff565b82800160010185558215610dff579182015b82811115610dfe578251825591602001919060010190610de3565b5b509050610e0c9190610e62565b5090565b6040518060800160405280600081526020016060815260200160008152602001600081525090565b60405180608001604052806000815260200160008152602001600081526020016000151581525090565b5b80821115610e7b576000816000905550600101610e63565b5090565b6000610e92610e8d84611641565b611610565b905082815260208101848484011115610eaa57600080fd5b610eb58482856116f8565b509392505050565b600081359050610ecc81611853565b92915050565b600081519050610ee18161186a565b92915050565b600082601f830112610ef857600080fd5b8135610f08848260208601610e7f565b91505092915050565b600081359050610f2081611881565b92915050565b60008060408385031215610f3957600080fd5b6000610f4785828601610ebd565b9250506020610f5885828601610ebd565b9150509250929050565b600060208284031215610f7457600080fd5b6000610f8284828501610ed2565b91505092915050565b600080600060608486031215610fa057600080fd5b600084013567ffffffffffffffff811115610fba57600080fd5b610fc686828701610ee7565b9350506020610fd786828701610f11565b9250506040610fe886828701610f11565b9150509250925092565b60006020828403121561100457600080fd5b600061101284828501610f11565b91505092915050565b6000806040838503121561102e57600080fd5b600061103c85828601610f11565b925050602061104d85828601610f11565b9150509250929050565b6110608161169e565b82525050565b61106f816116b0565b82525050565b61107e816116b0565b82525050565b61108d816116e6565b82525050565b600061109e82611671565b6110a8818561167c565b93506110b8818560208601611707565b6110c181611842565b840191505092915050565b60006110d960168361168d565b91507f50726f6475637420646f6573206e6f74206578697374000000000000000000006000830152602082019050919050565b6000611119601c8361168d565b91507f4964206d7573742062652067726561746572207468616e207a65726f000000006000830152602082019050919050565b6000611159601d8361168d565b91507f4964206d757374206265206772656174686572207468616e207a65726f0000006000830152602082019050919050565b600061119960188361168d565b91507f50726f6d6f74696f6e20646f6573206e6f7420657869737400000000000000006000830152602082019050919050565b60006111d960178361168d565b91507f4d7573742062652076616c6964206164647265737365730000000000000000006000830152602082019050919050565b600061121960228361168d565b91507f4d75737420626520657175616c206f722067726561746572207468616e203c6560008301527f726f0000000000000000000000000000000000000000000000000000000000006020830152604082019050919050565b600061127f60498361168d565b91507f50726963652070726f6475637420616e6420746f6b656e7320746f206265206160008301527f7369676e6564206d75737420626520657175616c206f7220677265617465722060208301527f7468616e207a65726f00000000000000000000000000000000000000000000006040830152606082019050919050565b600061130b60168361168d565b91507f446562656e20736572206d61796f722061206365726f000000000000000000006000830152602082019050919050565b600060808301600083015161135660008601826113f6565b506020830151848203602086015261136e8282611093565b915050604083015161138360408601826113f6565b50606083015161139660608601826113f6565b508091505092915050565b6080820160008201516113b760008501826113f6565b5060208201516113ca60208501826113f6565b5060408201516113dd60408501826113f6565b5060608201516113f06060850182611066565b50505050565b6113ff816116dc565b82525050565b61140e816116dc565b82525050565b60006020820190506114296000830184611057565b92915050565b60006060820190506114446000830186611057565b6114516020830185611057565b61145e6040830184611405565b949350505050565b600060408201905061147b6000830185611057565b6114886020830184611084565b9392505050565b60006040820190506114a46000830185611057565b6114b16020830184611405565b9392505050565b60006020820190506114cd6000830184611075565b92915050565b600060208201905081810360008301526114ec816110cc565b9050919050565b6000602082019050818103600083015261150c8161110c565b9050919050565b6000602082019050818103600083015261152c8161114c565b9050919050565b6000602082019050818103600083015261154c8161118c565b9050919050565b6000602082019050818103600083015261156c816111cc565b9050919050565b6000602082019050818103600083015261158c8161120c565b9050919050565b600060208201905081810360008301526115ac81611272565b9050919050565b600060208201905081810360008301526115cc816112fe565b9050919050565b600060208201905081810360008301526115ed818461133e565b905092915050565b600060808201905061160a60008301846113a1565b92915050565b6000604051905081810181811067ffffffffffffffff8211171561163757611636611813565b5b8060405250919050565b600067ffffffffffffffff82111561165c5761165b611813565b5b601f19601f8301169050602081019050919050565b600081519050919050565b600082825260208201905092915050565b600082825260208201905092915050565b60006116a9826116bc565b9050919050565b60008115159050919050565b600073ffffffffffffffffffffffffffffffffffffffff82169050919050565b6000819050919050565b60006116f1826116dc565b9050919050565b82818337600083830152505050565b60005b8381101561172557808201518184015260208101905061170a565b83811115611734576000848401525b50505050565b6000600282049050600182168061175257607f821691505b60208210811415611766576117656117e4565b5b50919050565b6000611777826116dc565b91507fffffffffffffffffffffffffffffffffffffffffffffffffffffffffffffffff8214156117aa576117a96117b5565b5b600182019050919050565b7f4e487b7100000000000000000000000000000000000000000000000000000000600052601160045260246000fd5b7f4e487b7100000000000000000000000000000000000000000000000000000000600052602260045260246000fd5b7f4e487b7100000000000000000000000000000000000000000000000000000000600052604160045260246000fd5b6000601f19601f8301169050919050565b61185c8161169e565b811461186757600080fd5b50565b611873816116b0565b811461187e57600080fd5b50565b61188a816116dc565b811461189557600080fd5b5056fea2646970667358221220ecc26edaac0763fdc37dcbb08af1e20a4a51b0e590b96223c4e1ca2bdb7a5d9d64736f6c63430008000033",
  "immutableReferences": {},
  "source": "// SPDX-License-Identifier: MIT\r\npragma solidity 0.8.0;\r\n\r\nimport \"@chainlink/contracts/src/v0.8/interfaces/AggregatorV3Interface.sol\";\r\nimport \"@openzeppelin/contracts/token/ERC20/ERC20.sol\";\r\n\r\ncontract Store{\r\n    uint256 private id;\r\n    uint256 private qtyPromotions;\r\n    uint256 private qtyProducts;\r\n    uint256 private counterProductsAsigned;\r\n    string private nameStore;\r\n    address private contractOwner;\r\n    ERC20 private USDT;\r\n    address private CONTRACT_ADMIN_PROTOCOL;\r\n        \r\n    struct Promotion{\r\n        uint256 id;\r\n        uint256 startDate;\r\n        uint256 endDate;\r\n        bool active;\r\n    }\r\n    \r\n    struct Product{\r\n        uint256 id;\r\n        string SKU;\r\n        uint256 price;\r\n        uint256 tokenGivens;\r\n    }\r\n    \r\n    struct ProductAsigned{\r\n        uint256 idProduct;\r\n        bool asigned;\r\n    }\r\n    \r\n    mapping(address => address) tokenPriceFeedMapping;\r\n    mapping(uint256 => Product) products;\r\n    mapping(uint256 => Promotion) promotions;    \r\n    mapping(uint256 => mapping(uint256 => ProductAsigned)) productsInPromotions;\r\n    \r\n    constructor(address _owner, uint256 _id, string memory _nameStore, address token){\r\n        require(_owner != address(0) && _id > 0, \"address must be valid and Id must be equal or greater than zero\");\r\n        id = _id;\r\n        qtyPromotions = 1;\r\n        nameStore = _nameStore;\r\n        contractOwner = _owner;\r\n        counterProductsAsigned = 0;\r\n        USDT = ERC20(token);\r\n    }\r\n    \r\n    function CreateProduct(string memory _SKU, uint256 _priceProduct, uint256 _tokensPerProduct) isOwner public{\r\n        require(_priceProduct >= 0 && _tokensPerProduct >= 0, \"Price product and tokens to be asigned must be equal or greater than zero\");\r\n        products[qtyProducts] = Product(qtyProducts, _SKU, _priceProduct, _tokensPerProduct);\r\n        qtyProducts++;\r\n    }\r\n\r\n\r\n    function buyToken(uint256 amount) public {  \r\n        USDT.decreaseAllowance(address(this), 0);      \r\n        USDT.increaseAllowance(address(this), amount);\r\n        USDT.transferFrom(msg.sender, address(this), amount);\r\n        USDT.decreaseAllowance(address(this), 0);      \r\n        //ERC20(USDT).transfer(address(this), amount);\r\n    }\r\n\r\n    function CreatePromotion(uint256 _startDate, uint256 _endDate) isOwner public{\r\n        promotions[qtyPromotions] = Promotion(qtyPromotions, _startDate, _endDate, true);\r\n        qtyPromotions++;\r\n    }\r\n    \r\n    function AssignProductToPromotion(uint _idProduct, uint _idPromotion) isOwner public{\r\n        require(_idProduct > 0 && _idPromotion > 0, \"Deben ser mayor a cero\");\r\n        Promotion memory prom = GetPromotionById(_idPromotion);\r\n        Product memory prod = GetProductById(_idProduct);\r\n        counterProductsAsigned++;\r\n        productsInPromotions[counterProductsAsigned][prom.id] = ProductAsigned(prod.id, true);\r\n        \r\n    }\r\n    \r\n    function UnAssignProductToPromotion(uint _idProduct, uint _idPromotion) isOwner public{\r\n        require(_idProduct > 0 && _idPromotion > 0, \"Must be equal or greater than <ero\");\r\n        Promotion memory prom = GetPromotionById(_idPromotion);\r\n        Product memory prod = GetProductById(_idProduct);\r\n        productsInPromotions[counterProductsAsigned][prom.id] = ProductAsigned(prod.id, false);\r\n    }\r\n    \r\n    function GetPromotionById(uint256 _id) public view returns (Promotion memory){\r\n        require(_id > 0, \"Id must be greater than zero\");\r\n        Promotion memory p = promotions[_id];\r\n        require(p.id > 0, \"Promotion does not exist\");\r\n        return p;\r\n    }\r\n    \r\n    function GetProductById(uint256 _id) public view returns (Product memory){\r\n        require(_id > 0, \"Id must be greather than zero\");\r\n        Product memory p = products[_id];\r\n        require(p.id > 0, \"Product does not exist\");\r\n        return p;\r\n    }\r\n    \r\n    function BuyProduct() public{\r\n        \r\n    }  \r\n    \r\n    function addTokenToPriceFeed(address token, address priceFeed) isOwner public returns(bool){\r\n        require(token != address(0) && priceFeed != address(0), \"Must be valid addresses\");\r\n        tokenPriceFeedMapping[token] =  priceFeed;\r\n        return true;\r\n    }\r\n\r\n    /*\r\n    function getTokenPriceByChainlink(address token) public view returns (uint256) {\r\n        address priceFeedAddress = tokenPriceFeedMapping[token];\r\n        AggregatorV3Interface priceFeed = AggregatorV3Interface(\r\n            priceFeedAddress\r\n        );\r\n        (\r\n            uint80 roundID,\r\n            int256 price,\r\n            uint256 startedAt,\r\n            uint256 timeStamp,\r\n            uint80 answeredInRound\r\n        ) = priceFeed.latestRoundData();\r\n        return uint256(price);\r\n    }\r\n    */\r\n\r\n    function owner() public view returns(address){\r\n        return contractOwner;\r\n    }\r\n    \r\n    modifier isOwner(){\r\n        require(msg.sender == contractOwner);\r\n        _;\r\n    }\r\n}\r\n",
  "sourcePath": "D:\\Chainlink\\Hackathon Chainlink\\protocol\\truffle-project\\contracts\\Store.sol",
  "compiler": {
    "name": "solc",
    "version": "0.8.0+commit.c7dfd78e.Emscripten.clang"
  },
  "schemaVersion": "3.3.4",
  "updatedAt": "2021-11-12T00:15:58.364Z",
  "devdoc": {
    "kind": "dev",
    "methods": {},
    "version": 1
  },
  "userdoc": {
    "kind": "user",
    "methods": {},
    "version": 1
  }
}