{
  "contractName": "Store",
  "abi": [
    {
      "inputs": [
        {
          "internalType": "address",
          "name": "_owner",
          "type": "address"
        },
        {
          "internalType": "uint256",
          "name": "_id",
          "type": "uint256"
        },
        {
          "internalType": "string",
          "name": "_nameStore",
          "type": "string"
        },
        {
          "internalType": "address",
          "name": "_usdt",
          "type": "address"
        },
        {
          "internalType": "contract IUCPToken",
          "name": "_uct",
          "type": "address"
        },
        {
          "internalType": "address",
          "name": "_protocol",
          "type": "address"
        }
      ],
      "stateMutability": "nonpayable",
      "type": "constructor"
    },
    {
      "inputs": [
        {
          "internalType": "uint256",
          "name": "_amount",
          "type": "uint256"
        },
        {
          "internalType": "address",
          "name": "_token",
          "type": "address"
        }
      ],
      "name": "buyToken",
      "outputs": [],
      "stateMutability": "nonpayable",
      "type": "function"
    },
    {
      "inputs": [
        {
          "internalType": "uint256",
          "name": "_startDate",
          "type": "uint256"
        },
        {
          "internalType": "uint256",
          "name": "_endDate",
          "type": "uint256"
        },
        {
          "internalType": "uint256",
          "name": "_initialTokens",
          "type": "uint256"
        }
      ],
      "name": "createPromotion",
      "outputs": [],
      "stateMutability": "nonpayable",
      "type": "function"
    },
    {
      "inputs": [
        {
          "internalType": "uint256",
          "name": "_idPromotion",
          "type": "uint256"
        },
        {
          "internalType": "uint256",
          "name": "_idProduct",
          "type": "uint256"
        }
      ],
      "name": "assignProductToPromotion",
      "outputs": [],
      "stateMutability": "nonpayable",
      "type": "function"
    },
    {
      "inputs": [
        {
          "internalType": "uint256",
          "name": "_idPromotion",
          "type": "uint256"
        },
        {
          "internalType": "uint256",
          "name": "_idProduct",
          "type": "uint256"
        }
      ],
      "name": "unAssignProductToPromotion",
      "outputs": [],
      "stateMutability": "nonpayable",
      "type": "function"
    },
    {
      "inputs": [
        {
          "internalType": "uint256",
          "name": "_idPromotion",
          "type": "uint256"
        },
        {
          "internalType": "uint256",
          "name": "_idProduct",
          "type": "uint256"
        }
      ],
      "name": "buyProduct",
      "outputs": [],
      "stateMutability": "nonpayable",
      "type": "function"
    },
    {
      "inputs": [
        {
          "internalType": "uint256",
          "name": "_id",
          "type": "uint256"
        }
      ],
      "name": "getPromotionById",
      "outputs": [
        {
          "components": [
            {
              "internalType": "uint256",
              "name": "id",
              "type": "uint256"
            },
            {
              "internalType": "uint256",
              "name": "startDate",
              "type": "uint256"
            },
            {
              "internalType": "uint256",
              "name": "endDate",
              "type": "uint256"
            },
            {
              "internalType": "bool",
              "name": "active",
              "type": "bool"
            },
            {
              "internalType": "uint256",
              "name": "initialTokens",
              "type": "uint256"
            },
            {
              "internalType": "uint256",
              "name": "currentTokens",
              "type": "uint256"
            }
          ],
          "internalType": "struct Store.Promotion",
          "name": "",
          "type": "tuple"
        }
      ],
      "stateMutability": "view",
      "type": "function"
    },
    {
      "inputs": [
        {
          "internalType": "uint256",
          "name": "_id",
          "type": "uint256"
        }
      ],
      "name": "getProductById",
      "outputs": [
        {
          "components": [
            {
              "internalType": "uint256",
              "name": "id",
              "type": "uint256"
            },
            {
              "internalType": "string",
              "name": "SKU",
              "type": "string"
            },
            {
              "internalType": "uint256",
              "name": "price",
              "type": "uint256"
            },
            {
              "internalType": "uint256",
              "name": "tokenGivens",
              "type": "uint256"
            }
          ],
          "internalType": "struct Store.Product",
          "name": "",
          "type": "tuple"
        }
      ],
      "stateMutability": "view",
      "type": "function"
    },
    {
      "inputs": [
        {
          "internalType": "string",
          "name": "_SKU",
          "type": "string"
        },
        {
          "internalType": "uint256",
          "name": "_priceProduct",
          "type": "uint256"
        },
        {
          "internalType": "uint256",
          "name": "_tokensPerProduct",
          "type": "uint256"
        }
      ],
      "name": "createProduct",
      "outputs": [],
      "stateMutability": "nonpayable",
      "type": "function"
    },
    {
      "inputs": [],
      "name": "owner",
      "outputs": [
        {
          "internalType": "address",
          "name": "",
          "type": "address"
        }
      ],
      "stateMutability": "view",
      "type": "function"
    },
    {
      "inputs": [],
      "name": "getQtyProducts",
      "outputs": [
        {
          "internalType": "uint256",
          "name": "",
          "type": "uint256"
        }
      ],
      "stateMutability": "view",
      "type": "function"
    },
    {
      "inputs": [],
      "name": "getQtyPromotions",
      "outputs": [
        {
          "internalType": "uint256",
          "name": "",
          "type": "uint256"
        }
      ],
      "stateMutability": "view",
      "type": "function"
    }
  ],
  "bytecode": "0x60a0604052670de0b6b3a76400006080908152503480156200002057600080fd5b5060405162002407380380620024078339818101604052810190620000469190620003ad565b600073ffffffffffffffffffffffffffffffffffffffff168673ffffffffffffffffffffffffffffffffffffffff1614158015620000845750600085115b620000c6576040517f08c379a0000000000000000000000000000000000000000000000000000000008152600401620000bd90620004c4565b60405180910390fd5b84600081905550600180819055508360049080519060200190620000ec92919062000246565b5085600560006101000a81548173ffffffffffffffffffffffffffffffffffffffff021916908373ffffffffffffffffffffffffffffffffffffffff160217905550600060038190555082600760006101000a81548173ffffffffffffffffffffffffffffffffffffffff021916908373ffffffffffffffffffffffffffffffffffffffff16021790555081600860006101000a81548173ffffffffffffffffffffffffffffffffffffffff021916908373ffffffffffffffffffffffffffffffffffffffff16021790555080600660006101000a81548173ffffffffffffffffffffffffffffffffffffffff021916908373ffffffffffffffffffffffffffffffffffffffff16021790555080600960006101000a81548173ffffffffffffffffffffffffffffffffffffffff021916908373ffffffffffffffffffffffffffffffffffffffff160217905550505050505050620006c8565b8280546200025490620005e6565b90600052602060002090601f016020900481019282620002785760008555620002c4565b82601f106200029357805160ff1916838001178555620002c4565b82800160010185558215620002c4579182015b82811115620002c3578251825591602001919060010190620002a6565b5b509050620002d39190620002d7565b5090565b5b80821115620002f2576000816000905550600101620002d8565b5090565b60006200030d62000307846200051a565b620004e6565b9050828152602081018484840111156200032657600080fd5b62000333848285620005b0565b509392505050565b6000815190506200034c816200067a565b92915050565b600081519050620003638162000694565b92915050565b600082601f8301126200037b57600080fd5b81516200038d848260208601620002f6565b91505092915050565b600081519050620003a781620006ae565b92915050565b60008060008060008060c08789031215620003c757600080fd5b6000620003d789828a016200033b565b9650506020620003ea89828a0162000396565b955050604087015167ffffffffffffffff8111156200040857600080fd5b6200041689828a0162000369565b94505060606200042989828a016200033b565b93505060806200043c89828a0162000352565b92505060a06200044f89828a016200033b565b9150509295509295509295565b60006200046b603f836200054d565b91507f61646472657373206d7573742062652076616c696420616e64204964206d757360008301527f7420626520657175616c206f722067726561746572207468616e207a65726f006020830152604082019050919050565b60006020820190508181036000830152620004df816200045c565b9050919050565b6000604051905081810181811067ffffffffffffffff8211171562000510576200050f6200064b565b5b8060405250919050565b600067ffffffffffffffff8211156200053857620005376200064b565b5b601f19601f8301169050602081019050919050565b600082825260208201905092915050565b60006200056b8262000586565b9050919050565b60006200057f826200055e565b9050919050565b600073ffffffffffffffffffffffffffffffffffffffff82169050919050565b6000819050919050565b60005b83811015620005d0578082015181840152602081019050620005b3565b83811115620005e0576000848401525b50505050565b60006002820490506001821680620005ff57607f821691505b602082108114156200061657620006156200061c565b5b50919050565b7f4e487b7100000000000000000000000000000000000000000000000000000000600052602260045260246000fd5b7f4e487b7100000000000000000000000000000000000000000000000000000000600052604160045260246000fd5b62000685816200055e565b81146200069157600080fd5b50565b6200069f8162000572565b8114620006ab57600080fd5b50565b620006b981620005a6565b8114620006c557600080fd5b50565b608051611d23620006e4600039600061095a0152611d236000f3fe608060405234801561001057600080fd5b50600436106100a95760003560e01c80637801144b116100715780637801144b146101645780637bf12b1c146101825780638da5cb5b1461019e5780639134709e146101bc578063c8f4ef8f146101d8578063cf6b997d146101f4576100a9565b8063174c5e33146100ae57806331f43564146100cc5780633f70c2b4146100fc57806353b628661461012c57806360a51d3414610148575b600080fd5b6100b6610210565b6040516100c391906119d6565b60405180910390f35b6100e660048036038101906100e191906112e0565b61021a565b6040516100f391906119bb565b60405180910390f35b610116600480360381019061011191906112e0565b610324565b6040516101239190611999565b60405180910390f35b6101466004803603810190610141919061136e565b610491565b005b610162600480360381019061015d91906113aa565b6106d3565b005b61016c6107e6565b60405161017991906119d6565b60405180910390f35b61019c60048036038101906101979190611279565b6107f0565b005b6101a661092e565b6040516101b391906117fe565b60405180910390f35b6101d660048036038101906101d19190611332565b610958565b005b6101f260048036038101906101ed919061136e565b610d34565b005b61020e6004803603810190610209919061136e565b610e96565b005b6000600254905090565b610222611091565b60008211610265576040517f08c379a000000000000000000000000000000000000000000000000000000000815260040161025c906118f9565b60405180910390fd5b6000600b60008481526020019081526020016000206040518060c00160405290816000820154815260200160018201548152602001600282015481526020016003820160009054906101000a900460ff16151515158152602001600482015481526020016005820154815250509050600081600001511161031b576040517f08c379a000000000000000000000000000000000000000000000000000000000815260040161031290611939565b60405180910390fd5b80915050919050565b61032c6110c9565b6000821161036f576040517f08c379a000000000000000000000000000000000000000000000000000000000815260040161036690611919565b60405180910390fd5b6000600a6000848152602001908152602001600020604051806080016040529081600082015481526020016001820180546103a990611b8f565b80601f01602080910402602001604051908101604052809291908181526020018280546103d590611b8f565b80156104225780601f106103f757610100808354040283529160200191610422565b820191906000526020600020905b81548152906001019060200180831161040557829003601f168201915b505050505081526020016002820154815260200160038201548152505090506000816000015111610488576040517f08c379a000000000000000000000000000000000000000000000000000000000815260040161047f90611879565b60405180910390fd5b80915050919050565b6001151561049f8383610fbd565b1515146104e1576040517f08c379a00000000000000000000000000000000000000000000000000000000081526004016104d890611899565b60405180910390fd5b60006104ec82610324565b905060006104f98461021a565b905081606001518160a001511015610546576040517f08c379a000000000000000000000000000000000000000000000000000000000815260040161053d906118b9565b60405180910390fd5b81606001518160a00181815161055c9190611ad1565b91508181525050600760009054906101000a900473ffffffffffffffffffffffffffffffffffffffff1673ffffffffffffffffffffffffffffffffffffffff166323b872dd333085604001516040518463ffffffff1660e01b81526004016105c693929190611819565b602060405180830381600087803b1580156105e057600080fd5b505af11580156105f4573d6000803e3d6000fd5b505050506040513d601f19601f820116820180604052508101906106189190611250565b50600860009054906101000a900473ffffffffffffffffffffffffffffffffffffffff1673ffffffffffffffffffffffffffffffffffffffff1663a9059cbb3384606001516040518363ffffffff1660e01b815260040161067a929190611850565b602060405180830381600087803b15801561069457600080fd5b505af11580156106a8573d6000803e3d6000fd5b505050506040513d601f19601f820116820180604052508101906106cc9190611250565b5050505050565b600560009054906101000a900473ffffffffffffffffffffffffffffffffffffffff1673ffffffffffffffffffffffffffffffffffffffff163373ffffffffffffffffffffffffffffffffffffffff161461072d57600080fd5b6040518060c00160405280600154815260200184815260200183815260200160011515815260200182815260200182815250600b6000600154815260200190815260200160002060008201518160000155602082015181600101556040820151816002015560608201518160030160006101000a81548160ff0219169083151502179055506080820151816004015560a08201518160050155905050600160008154809291906107dc90611bc1565b9190505550505050565b6000600154905090565b600560009054906101000a900473ffffffffffffffffffffffffffffffffffffffff1673ffffffffffffffffffffffffffffffffffffffff163373ffffffffffffffffffffffffffffffffffffffff161461084a57600080fd5b6000821015801561085c575060008110155b61089b576040517f08c379a000000000000000000000000000000000000000000000000000000000815260040161089290611979565b60405180910390fd5b6040518060800160405280600254815260200184815260200183815260200182815250600a600060025481526020019081526020016000206000820151816000015560208201518160010190805190602001906108f99291906110f1565b5060408201518160020155606082015181600301559050506002600081548092919061092490611bc1565b9190505550505050565b6000600560009054906101000a900473ffffffffffffffffffffffffffffffffffffffff16905090565b7f00000000000000000000000000000000000000000000000000000000000000008210156109bb576040517f08c379a00000000000000000000000000000000000000000000000000000000081526004016109b290611959565b60405180910390fd5b6000600960009054906101000a900473ffffffffffffffffffffffffffffffffffffffff1673ffffffffffffffffffffffffffffffffffffffff1663d70b9e0784846040518363ffffffff1660e01b8152600401610a1a9291906119f1565b60206040518083038186803b158015610a3257600080fd5b505afa158015610a46573d6000803e3d6000fd5b505050506040513d601f19601f82011682018060405250810190610a6a9190611309565b9050600760009054906101000a900473ffffffffffffffffffffffffffffffffffffffff1673ffffffffffffffffffffffffffffffffffffffff166323b872dd3330846040518463ffffffff1660e01b8152600401610acb93929190611819565b602060405180830381600087803b158015610ae557600080fd5b505af1158015610af9573d6000803e3d6000fd5b505050506040513d601f19601f82011682018060405250810190610b1d9190611250565b50600960009054906101000a900473ffffffffffffffffffffffffffffffffffffffff1673ffffffffffffffffffffffffffffffffffffffff1663d61dd93e846000546040518363ffffffff1660e01b8152600401610b7d929190611a1a565b600060405180830381600087803b158015610b9757600080fd5b505af1158015610bab573d6000803e3d6000fd5b50505050600860009054906101000a900473ffffffffffffffffffffffffffffffffffffffff1673ffffffffffffffffffffffffffffffffffffffff1663c634d032846040518263ffffffff1660e01b8152600401610c0a91906119d6565b602060405180830381600087803b158015610c2457600080fd5b505af1158015610c38573d6000803e3d6000fd5b505050506040513d601f19601f82011682018060405250810190610c5c9190611250565b50600760009054906101000a900473ffffffffffffffffffffffffffffffffffffffff1673ffffffffffffffffffffffffffffffffffffffff1663a9059cbb600660009054906101000a900473ffffffffffffffffffffffffffffffffffffffff16836040518363ffffffff1660e01b8152600401610cdc929190611850565b602060405180830381600087803b158015610cf657600080fd5b505af1158015610d0a573d6000803e3d6000fd5b505050506040513d601f19601f82011682018060405250810190610d2e9190611250565b50505050565b600560009054906101000a900473ffffffffffffffffffffffffffffffffffffffff1673ffffffffffffffffffffffffffffffffffffffff163373ffffffffffffffffffffffffffffffffffffffff1614610d8e57600080fd5b600081118015610d9e5750600082115b610ddd576040517f08c379a0000000000000000000000000000000000000000000000000000000008152600401610dd4906118d9565b60405180910390fd5b6000610de88361021a565b90506000610df583610324565b90506040518060600160405280826000015181526020018360000151815260200160011515815250600c60008681526020019081526020016000206000858152602001908152602001600020600082015181600001556020820151816001015560408201518160020160006101000a81548160ff02191690831515021790555090505060036000815480929190610e8b90611bc1565b919050555050505050565b600560009054906101000a900473ffffffffffffffffffffffffffffffffffffffff1673ffffffffffffffffffffffffffffffffffffffff163373ffffffffffffffffffffffffffffffffffffffff1614610ef057600080fd5b60011515610efe8284610fbd565b151514610f40576040517f08c379a0000000000000000000000000000000000000000000000000000000008152600401610f3790611899565b60405180910390fd5b604051806060016040528082815260200183815260200160001515815250600c60008481526020019081526020016000206000838152602001908152602001600020600082015181600001556020820151816001015560408201518160020160006101000a81548160ff0219169083151502179055509050505050565b60008082118015610fce5750600083115b61100d576040517f08c379a0000000000000000000000000000000000000000000000000000000008152600401611004906118d9565b60405180910390fd5b6000600c6000858152602001908152602001600020600084815260200190815260200160002060405180606001604052908160008201548152602001600182015481526020016002820160009054906101000a900460ff1615151515815250509050828160000151141561108557600191505061108b565b60009150505b92915050565b6040518060c0016040528060008152602001600081526020016000815260200160001515815260200160008152602001600081525090565b6040518060800160405280600081526020016060815260200160008152602001600081525090565b8280546110fd90611b8f565b90600052602060002090601f01602090048101928261111f5760008555611166565b82601f1061113857805160ff1916838001178555611166565b82800160010185558215611166579182015b8281111561116557825182559160200191906001019061114a565b5b5090506111739190611177565b5090565b5b80821115611190576000816000905550600101611178565b5090565b60006111a76111a284611a74565b611a43565b9050828152602081018484840111156111bf57600080fd5b6111ca848285611b4d565b509392505050565b6000813590506111e181611ca8565b92915050565b6000815190506111f681611cbf565b92915050565b600082601f83011261120d57600080fd5b813561121d848260208601611194565b91505092915050565b60008135905061123581611cd6565b92915050565b60008151905061124a81611cd6565b92915050565b60006020828403121561126257600080fd5b6000611270848285016111e7565b91505092915050565b60008060006060848603121561128e57600080fd5b600084013567ffffffffffffffff8111156112a857600080fd5b6112b4868287016111fc565b93505060206112c586828701611226565b92505060406112d686828701611226565b9150509250925092565b6000602082840312156112f257600080fd5b600061130084828501611226565b91505092915050565b60006020828403121561131b57600080fd5b60006113298482850161123b565b91505092915050565b6000806040838503121561134557600080fd5b600061135385828601611226565b9250506020611364858286016111d2565b9150509250929050565b6000806040838503121561138157600080fd5b600061138f85828601611226565b92505060206113a085828601611226565b9150509250929050565b6000806000606084860312156113bf57600080fd5b60006113cd86828701611226565b93505060206113de86828701611226565b92505060406113ef86828701611226565b9150509250925092565b61140281611b05565b82525050565b61141181611b17565b82525050565b600061142282611aa4565b61142c8185611aaf565b935061143c818560208601611b5c565b61144581611c97565b840191505092915050565b600061145d601683611ac0565b91507f50726f6475637420646f6573206e6f74206578697374000000000000000000006000830152602082019050919050565b600061149d601c83611ac0565b91507f50726f6475637420686173206e6f74206265656e20617369676e6564000000006000830152602082019050919050565b60006114dd602f83611ac0565b91507f5468652070726f6d6f74696f6e20646f6573206e6f74206861766520656e6f7560008301527f67682055435420746f20676976652100000000000000000000000000000000006020830152604082019050919050565b6000611543601d83611ac0565b91507f496473206d7573742062652067726561746572207468616e207a65726f0000006000830152602082019050919050565b6000611583601c83611ac0565b91507f4964206d7573742062652067726561746572207468616e207a65726f000000006000830152602082019050919050565b60006115c3601d83611ac0565b91507f4964206d757374206265206772656174686572207468616e207a65726f0000006000830152602082019050919050565b6000611603601883611ac0565b91507f50726f6d6f74696f6e20646f6573206e6f7420657869737400000000000000006000830152602082019050919050565b6000611643601d83611ac0565b91507f416d6f756e74206d7573742062652067726561746865722074616e20310000006000830152602082019050919050565b6000611683604983611ac0565b91507f50726963652070726f6475637420616e6420746f6b656e7320746f206265206160008301527f7369676e6564206d75737420626520657175616c206f7220677265617465722060208301527f7468616e207a65726f00000000000000000000000000000000000000000000006040830152606082019050919050565b600060808301600083015161171a60008601826117e0565b50602083015184820360208601526117328282611417565b915050604083015161174760408601826117e0565b50606083015161175a60608601826117e0565b508091505092915050565b60c08201600082015161177b60008501826117e0565b50602082015161178e60208501826117e0565b5060408201516117a160408501826117e0565b5060608201516117b46060850182611408565b5060808201516117c760808501826117e0565b5060a08201516117da60a08501826117e0565b50505050565b6117e981611b43565b82525050565b6117f881611b43565b82525050565b600060208201905061181360008301846113f9565b92915050565b600060608201905061182e60008301866113f9565b61183b60208301856113f9565b61184860408301846117ef565b949350505050565b600060408201905061186560008301856113f9565b61187260208301846117ef565b9392505050565b6000602082019050818103600083015261189281611450565b9050919050565b600060208201905081810360008301526118b281611490565b9050919050565b600060208201905081810360008301526118d2816114d0565b9050919050565b600060208201905081810360008301526118f281611536565b9050919050565b6000602082019050818103600083015261191281611576565b9050919050565b60006020820190508181036000830152611932816115b6565b9050919050565b60006020820190508181036000830152611952816115f6565b9050919050565b6000602082019050818103600083015261197281611636565b9050919050565b6000602082019050818103600083015261199281611676565b9050919050565b600060208201905081810360008301526119b38184611702565b905092915050565b600060c0820190506119d06000830184611765565b92915050565b60006020820190506119eb60008301846117ef565b92915050565b6000604082019050611a0660008301856117ef565b611a1360208301846113f9565b9392505050565b6000604082019050611a2f60008301856117ef565b611a3c60208301846117ef565b9392505050565b6000604051905081810181811067ffffffffffffffff82111715611a6a57611a69611c68565b5b8060405250919050565b600067ffffffffffffffff821115611a8f57611a8e611c68565b5b601f19601f8301169050602081019050919050565b600081519050919050565b600082825260208201905092915050565b600082825260208201905092915050565b6000611adc82611b43565b9150611ae783611b43565b925082821015611afa57611af9611c0a565b5b828203905092915050565b6000611b1082611b23565b9050919050565b60008115159050919050565b600073ffffffffffffffffffffffffffffffffffffffff82169050919050565b6000819050919050565b82818337600083830152505050565b60005b83811015611b7a578082015181840152602081019050611b5f565b83811115611b89576000848401525b50505050565b60006002820490506001821680611ba757607f821691505b60208210811415611bbb57611bba611c39565b5b50919050565b6000611bcc82611b43565b91507fffffffffffffffffffffffffffffffffffffffffffffffffffffffffffffffff821415611bff57611bfe611c0a565b5b600182019050919050565b7f4e487b7100000000000000000000000000000000000000000000000000000000600052601160045260246000fd5b7f4e487b7100000000000000000000000000000000000000000000000000000000600052602260045260246000fd5b7f4e487b7100000000000000000000000000000000000000000000000000000000600052604160045260246000fd5b6000601f19601f8301169050919050565b611cb181611b05565b8114611cbc57600080fd5b50565b611cc881611b17565b8114611cd357600080fd5b50565b611cdf81611b43565b8114611cea57600080fd5b5056fea26469706673582212205808f00d1e7a9424e136d7cf9f1919217e38678aa572c5c5163e85821902f5b264736f6c63430008000033",
  "immutableReferences": {
    "599": [
      {
        "length": 32,
        "start": 2394
      }
    ]
  },
  "source": "// SPDX-License-Identifier: MIT\r\npragma solidity 0.8.0;\r\n\r\nimport \"@openzeppelin/contracts/token/ERC20/ERC20.sol\";\r\nimport \"@chainlink/contracts/src/v0.8/interfaces/AggregatorV3Interface.sol\";\r\nimport \"./IUCPToken.sol\";\r\nimport \"./AdminProtocol.sol\";\r\n\r\ncontract Store{\r\n    uint256 private id;\r\n    uint256 private qtyPromotions;\r\n    uint256 private qtyProducts;\r\n    uint256 private counterProductsAsigned;\r\n    uint256 immutable private MINIMUN_TOKEN = 1 * 10 ** 18;    \r\n    string private nameStore;\r\n    address private contractOwner;\r\n    address private CONTRACT_PROTOCOL;\r\n\r\n    ERC20 private USDT;\r\n    IUCPToken private UCT;    \r\n    AdminProtocol private protocol;\r\n\r\n    struct Promotion{\r\n        uint256 id;\r\n        uint256 startDate;\r\n        uint256 endDate;\r\n        bool active;\r\n        uint256 initialTokens;\r\n        uint256 currentTokens;\r\n    }\r\n    \r\n    struct Product{\r\n        uint256 id;\r\n        string SKU;\r\n        uint256 price;\r\n        uint256 tokenGivens;\r\n    }\r\n    \r\n    struct ProductAsigned{\r\n        uint idProduct;\r\n        uint idPromotion;\r\n        bool asigned;\r\n    }\r\n    \r\n    //mapping(address => address) tokenPriceFeedMapping;\r\n    mapping(uint256 => Product) products;\r\n    mapping(uint256 => Promotion) promotions;    \r\n    mapping(uint256 => mapping(uint256 => ProductAsigned)) productsInPromotions;\r\n    //mapping(uint256 => ProductAsigned) productsInPromotions;\r\n    \r\n    constructor(address _owner, uint256 _id, string memory _nameStore, address _usdt, IUCPToken _uct, address _protocol ){\r\n        require(_owner != address(0) && _id > 0, \"address must be valid and Id must be equal or greater than zero\");\r\n        id = _id;\r\n        qtyPromotions = 1;\r\n        nameStore = _nameStore;\r\n        contractOwner = _owner;\r\n        counterProductsAsigned = 0;\r\n        USDT = ERC20(_usdt);\r\n        UCT = _uct;\r\n        CONTRACT_PROTOCOL = _protocol;\r\n        protocol = AdminProtocol(_protocol);\r\n    } \r\n    \r\n    function buyToken(uint256 _amount, address _token) public {  \r\n        require(_amount >= MINIMUN_TOKEN, \"Amount must be greather tan 1\");\r\n        uint256 toPay = protocol.calculatePricePerToken(_amount, _token);                            \r\n        //Request payment in USDT \r\n        USDT.transferFrom(msg.sender, address(this), toPay);                          \r\n        protocol.updateAddressesAllowedToMint(_amount, id);\r\n        //Mint tokens\r\n        UCT.mintToken(_amount); \r\n        //Transfer the USDT tokens to Admin Protocol Contract\r\n        USDT.transfer(CONTRACT_PROTOCOL, toPay);     \r\n    }\r\n\r\n    function createPromotion(uint _startDate, uint _endDate, uint _initialTokens) isOwner public{\r\n        promotions[qtyPromotions] = Promotion(qtyPromotions, _startDate, _endDate, true, _initialTokens, _initialTokens);\r\n        qtyPromotions++;\r\n    }\r\n    \r\n    function assignProductToPromotion(uint _idPromotion, uint _idProduct) isOwner public{\r\n        require(_idProduct > 0 && _idPromotion > 0, \"Ids must be greater than zero\");\r\n        Promotion memory prom = getPromotionById(_idPromotion);\r\n        Product memory prod = getProductById(_idProduct);        \r\n        productsInPromotions[_idPromotion][_idProduct] = ProductAsigned(prod.id, prom.id, true);        \r\n        counterProductsAsigned++;\r\n    }\r\n    \r\n    function unAssignProductToPromotion(uint _idPromotion, uint _idProduct) isOwner public{        \r\n        require(isProductAsigned(_idProduct, _idPromotion) == true, \"Product has not been asigned\");\r\n        productsInPromotions[_idPromotion][_idProduct] = ProductAsigned(_idProduct, _idPromotion, false);\r\n    }\r\n\r\n    function isProductAsigned(uint _idPromotion, uint _idProduct) internal view returns(bool){\r\n        require( _idProduct > 0 && _idPromotion > 0, \"Ids must be greater than zero\");  \r\n        ProductAsigned memory prods = productsInPromotions[_idPromotion][_idProduct];  \r\n        \r\n        if(prods.idProduct == _idProduct){\r\n            return true;\r\n        }else{\r\n            return false;\r\n        }\r\n    }\r\n\r\n    function buyProduct(uint _idPromotion, uint _idProduct) public {\r\n        require(isProductAsigned(_idPromotion, _idProduct) == true, \"Product has not been asigned\");\r\n        Product memory pd = getProductById(_idProduct);\r\n        Promotion memory pm = getPromotionById(_idPromotion);\r\n        require(pm.currentTokens >= pd.tokenGivens, \"The promotion does not have enough UCT to give!\");\r\n        pm.currentTokens -= pd.tokenGivens;\r\n        USDT.transferFrom(msg.sender, address(this), pd.price);  \r\n        UCT.transfer(msg.sender, pd.tokenGivens);        \r\n    }  \r\n    \r\n    function getPromotionById(uint256 _id) public view returns (Promotion memory){\r\n        require(_id > 0, \"Id must be greater than zero\");\r\n        Promotion memory p = promotions[_id];\r\n        require(p.id > 0, \"Promotion does not exist\");\r\n        return p;\r\n    }\r\n    \r\n    function getProductById(uint256 _id) public view returns (Product memory){\r\n        require(_id > 0, \"Id must be greather than zero\");\r\n        Product memory p = products[_id];\r\n        require(p.id > 0, \"Product does not exist\");\r\n        return p;\r\n    }\r\n    \r\n    function createProduct(string memory _SKU, uint256 _priceProduct, uint256 _tokensPerProduct) isOwner public{\r\n        require(_priceProduct >= 0 && _tokensPerProduct >= 0, \"Price product and tokens to be asigned must be equal or greater than zero\");\r\n        products[qtyProducts] = Product(qtyProducts, _SKU, _priceProduct, _tokensPerProduct);\r\n        qtyProducts++;\r\n    }\r\n    \r\n    function owner() public view returns(address){\r\n        return contractOwner;\r\n    }\r\n\r\n    function getQtyProducts() public view returns(uint){\r\n        return qtyProducts;\r\n    }\r\n\r\n    function getQtyPromotions() public view returns(uint){\r\n        return qtyPromotions;\r\n    }\r\n    \r\n    modifier isOwner(){\r\n        require(msg.sender == contractOwner);\r\n        _;\r\n    }\r\n}\r\n",
  "sourcePath": "C:\\Users\\Gilberts\\Desktop\\eth\\cashback\\universal-cashback-protocol\\contracts\\Store.sol",
  "compiler": {
    "name": "solc",
    "version": "0.8.0+commit.c7dfd78e.Emscripten.clang"
  },
  "schemaVersion": "3.3.4",
  "updatedAt": "2021-11-23T18:37:52.701Z",
  "devdoc": {
    "kind": "dev",
    "methods": {},
    "version": 1
  },
  "userdoc": {
    "kind": "user",
    "methods": {},
    "version": 1
  }
}