{
  "contractName": "UCPToken",
  "abi": [
    {
      "inputs": [
        {
          "internalType": "address",
          "name": "_USDT",
          "type": "address"
        }
      ],
      "stateMutability": "nonpayable",
      "type": "constructor"
    },
    {
      "anonymous": false,
      "inputs": [
        {
          "indexed": true,
          "internalType": "address",
          "name": "owner",
          "type": "address"
        },
        {
          "indexed": true,
          "internalType": "address",
          "name": "spender",
          "type": "address"
        },
        {
          "indexed": false,
          "internalType": "uint256",
          "name": "value",
          "type": "uint256"
        }
      ],
      "name": "Approval",
      "type": "event"
    },
    {
      "anonymous": false,
      "inputs": [
        {
          "indexed": true,
          "internalType": "address",
          "name": "previousOwner",
          "type": "address"
        },
        {
          "indexed": true,
          "internalType": "address",
          "name": "newOwner",
          "type": "address"
        }
      ],
      "name": "OwnershipTransferred",
      "type": "event"
    },
    {
      "anonymous": false,
      "inputs": [
        {
          "indexed": true,
          "internalType": "address",
          "name": "from",
          "type": "address"
        },
        {
          "indexed": true,
          "internalType": "address",
          "name": "to",
          "type": "address"
        },
        {
          "indexed": false,
          "internalType": "uint256",
          "name": "value",
          "type": "uint256"
        }
      ],
      "name": "Transfer",
      "type": "event"
    },
    {
      "inputs": [
        {
          "internalType": "address",
          "name": "owner",
          "type": "address"
        },
        {
          "internalType": "address",
          "name": "spender",
          "type": "address"
        }
      ],
      "name": "allowance",
      "outputs": [
        {
          "internalType": "uint256",
          "name": "",
          "type": "uint256"
        }
      ],
      "stateMutability": "view",
      "type": "function"
    },
    {
      "inputs": [
        {
          "internalType": "address",
          "name": "spender",
          "type": "address"
        },
        {
          "internalType": "uint256",
          "name": "amount",
          "type": "uint256"
        }
      ],
      "name": "approve",
      "outputs": [
        {
          "internalType": "bool",
          "name": "",
          "type": "bool"
        }
      ],
      "stateMutability": "nonpayable",
      "type": "function"
    },
    {
      "inputs": [
        {
          "internalType": "address",
          "name": "account",
          "type": "address"
        }
      ],
      "name": "balanceOf",
      "outputs": [
        {
          "internalType": "uint256",
          "name": "",
          "type": "uint256"
        }
      ],
      "stateMutability": "view",
      "type": "function"
    },
    {
      "inputs": [
        {
          "internalType": "uint256",
          "name": "amount",
          "type": "uint256"
        }
      ],
      "name": "burn",
      "outputs": [],
      "stateMutability": "nonpayable",
      "type": "function"
    },
    {
      "inputs": [
        {
          "internalType": "address",
          "name": "account",
          "type": "address"
        },
        {
          "internalType": "uint256",
          "name": "amount",
          "type": "uint256"
        }
      ],
      "name": "burnFrom",
      "outputs": [],
      "stateMutability": "nonpayable",
      "type": "function"
    },
    {
      "inputs": [],
      "name": "decimals",
      "outputs": [
        {
          "internalType": "uint8",
          "name": "",
          "type": "uint8"
        }
      ],
      "stateMutability": "view",
      "type": "function"
    },
    {
      "inputs": [
        {
          "internalType": "address",
          "name": "spender",
          "type": "address"
        },
        {
          "internalType": "uint256",
          "name": "subtractedValue",
          "type": "uint256"
        }
      ],
      "name": "decreaseAllowance",
      "outputs": [
        {
          "internalType": "bool",
          "name": "",
          "type": "bool"
        }
      ],
      "stateMutability": "nonpayable",
      "type": "function"
    },
    {
      "inputs": [
        {
          "internalType": "address",
          "name": "spender",
          "type": "address"
        },
        {
          "internalType": "uint256",
          "name": "addedValue",
          "type": "uint256"
        }
      ],
      "name": "increaseAllowance",
      "outputs": [
        {
          "internalType": "bool",
          "name": "",
          "type": "bool"
        }
      ],
      "stateMutability": "nonpayable",
      "type": "function"
    },
    {
      "inputs": [],
      "name": "name",
      "outputs": [
        {
          "internalType": "string",
          "name": "",
          "type": "string"
        }
      ],
      "stateMutability": "view",
      "type": "function"
    },
    {
      "inputs": [],
      "name": "owner",
      "outputs": [
        {
          "internalType": "address",
          "name": "",
          "type": "address"
        }
      ],
      "stateMutability": "view",
      "type": "function"
    },
    {
      "inputs": [],
      "name": "renounceOwnership",
      "outputs": [],
      "stateMutability": "nonpayable",
      "type": "function"
    },
    {
      "inputs": [],
      "name": "symbol",
      "outputs": [
        {
          "internalType": "string",
          "name": "",
          "type": "string"
        }
      ],
      "stateMutability": "view",
      "type": "function"
    },
    {
      "inputs": [],
      "name": "totalSupply",
      "outputs": [
        {
          "internalType": "uint256",
          "name": "",
          "type": "uint256"
        }
      ],
      "stateMutability": "view",
      "type": "function"
    },
    {
      "inputs": [
        {
          "internalType": "address",
          "name": "recipient",
          "type": "address"
        },
        {
          "internalType": "uint256",
          "name": "amount",
          "type": "uint256"
        }
      ],
      "name": "transfer",
      "outputs": [
        {
          "internalType": "bool",
          "name": "",
          "type": "bool"
        }
      ],
      "stateMutability": "nonpayable",
      "type": "function"
    },
    {
      "inputs": [
        {
          "internalType": "address",
          "name": "sender",
          "type": "address"
        },
        {
          "internalType": "address",
          "name": "recipient",
          "type": "address"
        },
        {
          "internalType": "uint256",
          "name": "amount",
          "type": "uint256"
        }
      ],
      "name": "transferFrom",
      "outputs": [
        {
          "internalType": "bool",
          "name": "",
          "type": "bool"
        }
      ],
      "stateMutability": "nonpayable",
      "type": "function"
    },
    {
      "inputs": [
        {
          "internalType": "address",
          "name": "newOwner",
          "type": "address"
        }
      ],
      "name": "transferOwnership",
      "outputs": [],
      "stateMutability": "nonpayable",
      "type": "function"
    },
    {
      "inputs": [
        {
          "internalType": "uint256",
          "name": "_amount",
          "type": "uint256"
        }
      ],
      "name": "mintToken",
      "outputs": [
        {
          "internalType": "bool",
          "name": "",
          "type": "bool"
        }
      ],
      "stateMutability": "nonpayable",
      "type": "function"
    },
    {
      "inputs": [
        {
          "internalType": "address",
          "name": "_contractAddress",
          "type": "address"
        }
      ],
      "name": "setContractProtocol",
      "outputs": [
        {
          "internalType": "bool",
          "name": "",
          "type": "bool"
        }
      ],
      "stateMutability": "nonpayable",
      "type": "function"
    },
    {
      "inputs": [
        {
          "internalType": "address",
          "name": "_contractAddress",
          "type": "address"
        },
        {
          "internalType": "uint256",
          "name": "_amount",
          "type": "uint256"
        }
      ],
      "name": "setAddressAllowedToMint",
      "outputs": [],
      "stateMutability": "nonpayable",
      "type": "function"
    },
    {
      "inputs": [
        {
          "internalType": "address",
          "name": "_account",
          "type": "address"
        }
      ],
      "name": "getAmountAllowedToMintByAddress",
      "outputs": [
        {
          "internalType": "uint256",
          "name": "",
          "type": "uint256"
        }
      ],
      "stateMutability": "view",
      "type": "function"
    },
    {
      "inputs": [
        {
          "internalType": "address",
          "name": "_contractAddress",
          "type": "address"
        }
      ],
      "name": "getAddressAllowToMint",
      "outputs": [
        {
          "internalType": "bool",
          "name": "",
          "type": "bool"
        }
      ],
      "stateMutability": "view",
      "type": "function"
    }
  ],
  "bytecode": "0x60806040523480156200001157600080fd5b5060405162002c8638038062002c86833981810160405281019062000037919062000475565b6040518060400160405280600881526020017f436173686261636b0000000000000000000000000000000000000000000000008152506040518060400160405280600381526020017f55435000000000000000000000000000000000000000000000000000000000008152508160039080519060200190620000bb929190620003ae565b508060049080519060200190620000d4929190620003ae565b505050620000f7620000eb6200015d60201b60201c565b6200016560201b60201c565b80600660006101000a81548173ffffffffffffffffffffffffffffffffffffffff021916908373ffffffffffffffffffffffffffffffffffffffff16021790555062000156336b033b2e3c9fd0803ce80000006200022b60201b60201c565b506200068d565b600033905090565b6000600560009054906101000a900473ffffffffffffffffffffffffffffffffffffffff16905081600560006101000a81548173ffffffffffffffffffffffffffffffffffffffff021916908373ffffffffffffffffffffffffffffffffffffffff1602179055508173ffffffffffffffffffffffffffffffffffffffff168173ffffffffffffffffffffffffffffffffffffffff167f8be0079c531659141344cd1fd0a4f28419497f9722a3daafe3b4186f6b6457e060405160405180910390a35050565b600073ffffffffffffffffffffffffffffffffffffffff168273ffffffffffffffffffffffffffffffffffffffff1614156200029e576040517f08c379a00000000000000000000000000000000000000000000000000000000081526004016200029590620004f4565b60405180910390fd5b620002b260008383620003a460201b60201c565b8060026000828254620002c6919062000544565b92505081905550806000808473ffffffffffffffffffffffffffffffffffffffff1673ffffffffffffffffffffffffffffffffffffffff16815260200190815260200160002060008282546200031d919062000544565b925050819055508173ffffffffffffffffffffffffffffffffffffffff16600073ffffffffffffffffffffffffffffffffffffffff167fddf252ad1be2c89b69c2b068fc378daa952ba7f163c4a11628f55a4df523b3ef8360405162000384919062000516565b60405180910390a3620003a060008383620003a960201b60201c565b5050565b505050565b505050565b828054620003bc90620005df565b90600052602060002090601f016020900481019282620003e057600085556200042c565b82601f10620003fb57805160ff19168380011785556200042c565b828001600101855582156200042c579182015b828111156200042b5782518255916020019190600101906200040e565b5b5090506200043b91906200043f565b5090565b5b808211156200045a57600081600090555060010162000440565b5090565b6000815190506200046f8162000673565b92915050565b6000602082840312156200048857600080fd5b600062000498848285016200045e565b91505092915050565b6000620004b0601f8362000533565b91507f45524332303a206d696e7420746f20746865207a65726f2061646472657373006000830152602082019050919050565b620004ee81620005d5565b82525050565b600060208201905081810360008301526200050f81620004a1565b9050919050565b60006020820190506200052d6000830184620004e3565b92915050565b600082825260208201905092915050565b60006200055182620005d5565b91506200055e83620005d5565b9250827fffffffffffffffffffffffffffffffffffffffffffffffffffffffffffffffff0382111562000596576200059562000615565b5b828201905092915050565b6000620005ae82620005b5565b9050919050565b600073ffffffffffffffffffffffffffffffffffffffff82169050919050565b6000819050919050565b60006002820490506001821680620005f857607f821691505b602082108114156200060f576200060e62000644565b5b50919050565b7f4e487b7100000000000000000000000000000000000000000000000000000000600052601160045260246000fd5b7f4e487b7100000000000000000000000000000000000000000000000000000000600052602260045260246000fd5b6200067e81620005a1565b81146200068a57600080fd5b50565b6125e9806200069d6000396000f3fe608060405234801561001057600080fd5b50600436106101375760003560e01c806370a08231116100b8578063a457c2d71161007c578063a457c2d714610350578063a9059cbb14610380578063c634d032146103b0578063dd62ed3e146103e0578063f2fde38b14610410578063fbd1c9c71461042c57610137565b806370a08231146102be578063715018a6146102ee57806379cc6790146102f85780638da5cb5b1461031457806395d89b411461033257610137565b806339509351116100ff57806339509351146101f657806342966c6814610226578063498eec2f146102425780636a5497d6146102725780636e49e2a4146102a257610137565b806306fdde031461013c578063095ea7b31461015a57806318160ddd1461018a57806323b872dd146101a8578063313ce567146101d8575b600080fd5b61014461045c565b604051610151919061211e565b60405180910390f35b610174600480360381019061016f91906119a0565b6104ee565b6040516101819190612103565b60405180910390f35b61019261050c565b60405161019f9190612380565b60405180910390f35b6101c260048036038101906101bd9190611951565b610516565b6040516101cf9190612103565b60405180910390f35b6101e061060e565b6040516101ed919061239b565b60405180910390f35b610210600480360381019061020b91906119a0565b610617565b60405161021d9190612103565b60405180910390f35b610240600480360381019061023b91906119dc565b6106c3565b005b61025c600480360381019061025791906118ec565b6106d7565b6040516102699190612103565b60405180910390f35b61028c600480360381019061028791906118ec565b61072d565b6040516102999190612380565b60405180910390f35b6102bc60048036038101906102b791906119a0565b610802565b005b6102d860048036038101906102d391906118ec565b610932565b6040516102e59190612380565b60405180910390f35b6102f661097a565b005b610312600480360381019061030d91906119a0565b610a02565b005b61031c610a7d565b60405161032991906120e8565b60405180910390f35b61033a610aa7565b604051610347919061211e565b60405180910390f35b61036a600480360381019061036591906119a0565b610b39565b6040516103779190612103565b60405180910390f35b61039a600480360381019061039591906119a0565b610c24565b6040516103a79190612103565b60405180910390f35b6103ca60048036038101906103c591906119dc565b610c42565b6040516103d79190612103565b60405180910390f35b6103fa60048036038101906103f59190611915565b610db0565b6040516104079190612380565b60405180910390f35b61042a600480360381019061042591906118ec565b610e37565b005b610446600480360381019061044191906118ec565b610f2f565b6040516104539190612103565b60405180910390f35b60606003805461046b906124e4565b80601f0160208091040260200160405190810160405280929190818152602001828054610497906124e4565b80156104e45780601f106104b9576101008083540402835291602001916104e4565b820191906000526020600020905b8154815290600101906020018083116104c757829003601f168201915b5050505050905090565b60006105026104fb611067565b848461106f565b6001905092915050565b6000600254905090565b600061052384848461123a565b6000600160008673ffffffffffffffffffffffffffffffffffffffff1673ffffffffffffffffffffffffffffffffffffffff168152602001908152602001600020600061056e611067565b73ffffffffffffffffffffffffffffffffffffffff1673ffffffffffffffffffffffffffffffffffffffff168152602001908152602001600020549050828110156105ee576040517f08c379a00000000000000000000000000000000000000000000000000000000081526004016105e590612240565b60405180910390fd5b610602856105fa611067565b85840361106f565b60019150509392505050565b60006012905090565b60006106b9610624611067565b848460016000610632611067565b73ffffffffffffffffffffffffffffffffffffffff1673ffffffffffffffffffffffffffffffffffffffff16815260200190815260200160002060008873ffffffffffffffffffffffffffffffffffffffff1673ffffffffffffffffffffffffffffffffffffffff168152602001908152602001600020546106b491906123d2565b61106f565b6001905092915050565b6106d46106ce611067565b826114bb565b50565b6000600860008373ffffffffffffffffffffffffffffffffffffffff1673ffffffffffffffffffffffffffffffffffffffff16815260200190815260200160002060009054906101000a90505060019050919050565b6000600860008373ffffffffffffffffffffffffffffffffffffffff1673ffffffffffffffffffffffffffffffffffffffff16815260200190815260200160002060009054906101000a900460ff166107bb576040517f08c379a00000000000000000000000000000000000000000000000000000000081526004016107b290612200565b60405180910390fd5b600960008373ffffffffffffffffffffffffffffffffffffffff1673ffffffffffffffffffffffffffffffffffffffff168152602001908152602001600020549050919050565b3373ffffffffffffffffffffffffffffffffffffffff16600760009054906101000a900473ffffffffffffffffffffffffffffffffffffffff1673ffffffffffffffffffffffffffffffffffffffff1614610892576040517f08c379a000000000000000000000000000000000000000000000000000000000815260040161088990612220565b60405180910390fd5b6001600860008473ffffffffffffffffffffffffffffffffffffffff1673ffffffffffffffffffffffffffffffffffffffff16815260200190815260200160002060006101000a81548160ff02191690831515021790555080600960008473ffffffffffffffffffffffffffffffffffffffff1673ffffffffffffffffffffffffffffffffffffffff168152602001908152602001600020819055505050565b60008060008373ffffffffffffffffffffffffffffffffffffffff1673ffffffffffffffffffffffffffffffffffffffff168152602001908152602001600020549050919050565b610982611067565b73ffffffffffffffffffffffffffffffffffffffff166109a0610a7d565b73ffffffffffffffffffffffffffffffffffffffff16146109f6576040517f08c379a00000000000000000000000000000000000000000000000000000000081526004016109ed90612260565b60405180910390fd5b610a006000611692565b565b6000610a1583610a10611067565b610db0565b905081811015610a5a576040517f08c379a0000000000000000000000000000000000000000000000000000000008152600401610a5190612280565b60405180910390fd5b610a6e83610a66611067565b84840361106f565b610a7883836114bb565b505050565b6000600560009054906101000a900473ffffffffffffffffffffffffffffffffffffffff16905090565b606060048054610ab6906124e4565b80601f0160208091040260200160405190810160405280929190818152602001828054610ae2906124e4565b8015610b2f5780601f10610b0457610100808354040283529160200191610b2f565b820191906000526020600020905b815481529060010190602001808311610b1257829003601f168201915b5050505050905090565b60008060016000610b48611067565b73ffffffffffffffffffffffffffffffffffffffff1673ffffffffffffffffffffffffffffffffffffffff16815260200190815260200160002060008573ffffffffffffffffffffffffffffffffffffffff1673ffffffffffffffffffffffffffffffffffffffff16815260200190815260200160002054905082811015610c05576040517f08c379a0000000000000000000000000000000000000000000000000000000008152600401610bfc90612340565b60405180910390fd5b610c19610c10611067565b8585840361106f565b600191505092915050565b6000610c38610c31611067565b848461123a565b6001905092915050565b600060011515600860003373ffffffffffffffffffffffffffffffffffffffff1673ffffffffffffffffffffffffffffffffffffffff16815260200190815260200160002060009054906101000a900460ff16151514610cd7576040517f08c379a0000000000000000000000000000000000000000000000000000000008152600401610cce90612300565b60405180910390fd5b81600960003373ffffffffffffffffffffffffffffffffffffffff1673ffffffffffffffffffffffffffffffffffffffff1681526020019081526020016000205414610d58576040517f08c379a0000000000000000000000000000000000000000000000000000000008152600401610d4f906122c0565b60405180910390fd5b6000600960003373ffffffffffffffffffffffffffffffffffffffff1673ffffffffffffffffffffffffffffffffffffffff16815260200190815260200160002081905550610da73383611758565b60019050919050565b6000600160008473ffffffffffffffffffffffffffffffffffffffff1673ffffffffffffffffffffffffffffffffffffffff16815260200190815260200160002060008373ffffffffffffffffffffffffffffffffffffffff1673ffffffffffffffffffffffffffffffffffffffff16815260200190815260200160002054905092915050565b610e3f611067565b73ffffffffffffffffffffffffffffffffffffffff16610e5d610a7d565b73ffffffffffffffffffffffffffffffffffffffff1614610eb3576040517f08c379a0000000000000000000000000000000000000000000000000000000008152600401610eaa90612260565b60405180910390fd5b600073ffffffffffffffffffffffffffffffffffffffff168173ffffffffffffffffffffffffffffffffffffffff161415610f23576040517f08c379a0000000000000000000000000000000000000000000000000000000008152600401610f1a90612180565b60405180910390fd5b610f2c81611692565b50565b6000610f39611067565b73ffffffffffffffffffffffffffffffffffffffff16610f57610a7d565b73ffffffffffffffffffffffffffffffffffffffff1614610fad576040517f08c379a0000000000000000000000000000000000000000000000000000000008152600401610fa490612260565b60405180910390fd5b600073ffffffffffffffffffffffffffffffffffffffff168273ffffffffffffffffffffffffffffffffffffffff16141561101d576040517f08c379a0000000000000000000000000000000000000000000000000000000008152600401611014906121c0565b60405180910390fd5b81600760006101000a81548173ffffffffffffffffffffffffffffffffffffffff021916908373ffffffffffffffffffffffffffffffffffffffff16021790555060019050919050565b600033905090565b600073ffffffffffffffffffffffffffffffffffffffff168373ffffffffffffffffffffffffffffffffffffffff1614156110df576040517f08c379a00000000000000000000000000000000000000000000000000000000081526004016110d690612320565b60405180910390fd5b600073ffffffffffffffffffffffffffffffffffffffff168273ffffffffffffffffffffffffffffffffffffffff16141561114f576040517f08c379a0000000000000000000000000000000000000000000000000000000008152600401611146906121a0565b60405180910390fd5b80600160008573ffffffffffffffffffffffffffffffffffffffff1673ffffffffffffffffffffffffffffffffffffffff16815260200190815260200160002060008473ffffffffffffffffffffffffffffffffffffffff1673ffffffffffffffffffffffffffffffffffffffff168152602001908152602001600020819055508173ffffffffffffffffffffffffffffffffffffffff168373ffffffffffffffffffffffffffffffffffffffff167f8c5be1e5ebec7d5bd14f71427d1e84f3dd0314c0f7b2291e5b200ac8c7c3b9258360405161122d9190612380565b60405180910390a3505050565b600073ffffffffffffffffffffffffffffffffffffffff168373ffffffffffffffffffffffffffffffffffffffff1614156112aa576040517f08c379a00000000000000000000000000000000000000000000000000000000081526004016112a1906122e0565b60405180910390fd5b600073ffffffffffffffffffffffffffffffffffffffff168273ffffffffffffffffffffffffffffffffffffffff16141561131a576040517f08c379a000000000000000000000000000000000000000000000000000000000815260040161131190612140565b60405180910390fd5b6113258383836118b8565b60008060008573ffffffffffffffffffffffffffffffffffffffff1673ffffffffffffffffffffffffffffffffffffffff168152602001908152602001600020549050818110156113ab576040517f08c379a00000000000000000000000000000000000000000000000000000000081526004016113a2906121e0565b60405180910390fd5b8181036000808673ffffffffffffffffffffffffffffffffffffffff1673ffffffffffffffffffffffffffffffffffffffff16815260200190815260200160002081905550816000808573ffffffffffffffffffffffffffffffffffffffff1673ffffffffffffffffffffffffffffffffffffffff168152602001908152602001600020600082825461143e91906123d2565b925050819055508273ffffffffffffffffffffffffffffffffffffffff168473ffffffffffffffffffffffffffffffffffffffff167fddf252ad1be2c89b69c2b068fc378daa952ba7f163c4a11628f55a4df523b3ef846040516114a29190612380565b60405180910390a36114b58484846118bd565b50505050565b600073ffffffffffffffffffffffffffffffffffffffff168273ffffffffffffffffffffffffffffffffffffffff16141561152b576040517f08c379a0000000000000000000000000000000000000000000000000000000008152600401611522906122a0565b60405180910390fd5b611537826000836118b8565b60008060008473ffffffffffffffffffffffffffffffffffffffff1673ffffffffffffffffffffffffffffffffffffffff168152602001908152602001600020549050818110156115bd576040517f08c379a00000000000000000000000000000000000000000000000000000000081526004016115b490612160565b60405180910390fd5b8181036000808573ffffffffffffffffffffffffffffffffffffffff1673ffffffffffffffffffffffffffffffffffffffff1681526020019081526020016000208190555081600260008282546116149190612428565b92505081905550600073ffffffffffffffffffffffffffffffffffffffff168373ffffffffffffffffffffffffffffffffffffffff167fddf252ad1be2c89b69c2b068fc378daa952ba7f163c4a11628f55a4df523b3ef846040516116799190612380565b60405180910390a361168d836000846118bd565b505050565b6000600560009054906101000a900473ffffffffffffffffffffffffffffffffffffffff16905081600560006101000a81548173ffffffffffffffffffffffffffffffffffffffff021916908373ffffffffffffffffffffffffffffffffffffffff1602179055508173ffffffffffffffffffffffffffffffffffffffff168173ffffffffffffffffffffffffffffffffffffffff167f8be0079c531659141344cd1fd0a4f28419497f9722a3daafe3b4186f6b6457e060405160405180910390a35050565b600073ffffffffffffffffffffffffffffffffffffffff168273ffffffffffffffffffffffffffffffffffffffff1614156117c8576040517f08c379a00000000000000000000000000000000000000000000000000000000081526004016117bf90612360565b60405180910390fd5b6117d4600083836118b8565b80600260008282546117e691906123d2565b92505081905550806000808473ffffffffffffffffffffffffffffffffffffffff1673ffffffffffffffffffffffffffffffffffffffff168152602001908152602001600020600082825461183b91906123d2565b925050819055508173ffffffffffffffffffffffffffffffffffffffff16600073ffffffffffffffffffffffffffffffffffffffff167fddf252ad1be2c89b69c2b068fc378daa952ba7f163c4a11628f55a4df523b3ef836040516118a09190612380565b60405180910390a36118b4600083836118bd565b5050565b505050565b505050565b6000813590506118d181612585565b92915050565b6000813590506118e68161259c565b92915050565b6000602082840312156118fe57600080fd5b600061190c848285016118c2565b91505092915050565b6000806040838503121561192857600080fd5b6000611936858286016118c2565b9250506020611947858286016118c2565b9150509250929050565b60008060006060848603121561196657600080fd5b6000611974868287016118c2565b9350506020611985868287016118c2565b9250506040611996868287016118d7565b9150509250925092565b600080604083850312156119b357600080fd5b60006119c1858286016118c2565b92505060206119d2858286016118d7565b9150509250929050565b6000602082840312156119ee57600080fd5b60006119fc848285016118d7565b91505092915050565b611a0e8161245c565b82525050565b611a1d8161246e565b82525050565b6000611a2e826123b6565b611a3881856123c1565b9350611a488185602086016124b1565b611a5181612574565b840191505092915050565b6000611a696023836123c1565b91507f45524332303a207472616e7366657220746f20746865207a65726f206164647260008301527f65737300000000000000000000000000000000000000000000000000000000006020830152604082019050919050565b6000611acf6022836123c1565b91507f45524332303a206275726e20616d6f756e7420657863656564732062616c616e60008301527f63650000000000000000000000000000000000000000000000000000000000006020830152604082019050919050565b6000611b356026836123c1565b91507f4f776e61626c653a206e6577206f776e657220697320746865207a65726f206160008301527f64647265737300000000000000000000000000000000000000000000000000006020830152604082019050919050565b6000611b9b6022836123c1565b91507f45524332303a20617070726f766520746f20746865207a65726f20616464726560008301527f73730000000000000000000000000000000000000000000000000000000000006020830152604082019050919050565b6000611c016014836123c1565b91507f416464726573206d7573742062652076616c69640000000000000000000000006000830152602082019050919050565b6000611c416026836123c1565b91507f45524332303a207472616e7366657220616d6f756e742065786365656473206260008301527f616c616e636500000000000000000000000000000000000000000000000000006020830152604082019050919050565b6000611ca7601e836123c1565b91507f4163636f756e74206973206e6f7420616c6c6f77656420746f206d696e7400006000830152602082019050919050565b6000611ce7602a836123c1565b91507f4f6e6c792074686520436f6e74726163742050726f746f636f6c2063616e206160008301527f64642041646472657373000000000000000000000000000000000000000000006020830152604082019050919050565b6000611d4d6028836123c1565b91507f45524332303a207472616e7366657220616d6f756e742065786365656473206160008301527f6c6c6f77616e63650000000000000000000000000000000000000000000000006020830152604082019050919050565b6000611db36020836123c1565b91507f4f776e61626c653a2063616c6c6572206973206e6f7420746865206f776e65726000830152602082019050919050565b6000611df36024836123c1565b91507f45524332303a206275726e20616d6f756e74206578636565647320616c6c6f7760008301527f616e6365000000000000000000000000000000000000000000000000000000006020830152604082019050919050565b6000611e596021836123c1565b91507f45524332303a206275726e2066726f6d20746865207a65726f2061646472657360008301527f73000000000000000000000000000000000000000000000000000000000000006020830152604082019050919050565b6000611ebf6023836123c1565b91507f43616e27742065786365656420616d6f756e7420616c6c6f77656420746f206d60008301527f696e7400000000000000000000000000000000000000000000000000000000006020830152604082019050919050565b6000611f256025836123c1565b91507f45524332303a207472616e736665722066726f6d20746865207a65726f20616460008301527f64726573730000000000000000000000000000000000000000000000000000006020830152604082019050919050565b6000611f8b6017836123c1565b91507f4d75737420626520616c6c6f77656420746f206d696e740000000000000000006000830152602082019050919050565b6000611fcb6024836123c1565b91507f45524332303a20617070726f76652066726f6d20746865207a65726f2061646460008301527f72657373000000000000000000000000000000000000000000000000000000006020830152604082019050919050565b60006120316025836123c1565b91507f45524332303a2064656372656173656420616c6c6f77616e63652062656c6f7760008301527f207a65726f0000000000000000000000000000000000000000000000000000006020830152604082019050919050565b6000612097601f836123c1565b91507f45524332303a206d696e7420746f20746865207a65726f2061646472657373006000830152602082019050919050565b6120d38161249a565b82525050565b6120e2816124a4565b82525050565b60006020820190506120fd6000830184611a05565b92915050565b60006020820190506121186000830184611a14565b92915050565b600060208201905081810360008301526121388184611a23565b905092915050565b6000602082019050818103600083015261215981611a5c565b9050919050565b6000602082019050818103600083015261217981611ac2565b9050919050565b6000602082019050818103600083015261219981611b28565b9050919050565b600060208201905081810360008301526121b981611b8e565b9050919050565b600060208201905081810360008301526121d981611bf4565b9050919050565b600060208201905081810360008301526121f981611c34565b9050919050565b6000602082019050818103600083015261221981611c9a565b9050919050565b6000602082019050818103600083015261223981611cda565b9050919050565b6000602082019050818103600083015261225981611d40565b9050919050565b6000602082019050818103600083015261227981611da6565b9050919050565b6000602082019050818103600083015261229981611de6565b9050919050565b600060208201905081810360008301526122b981611e4c565b9050919050565b600060208201905081810360008301526122d981611eb2565b9050919050565b600060208201905081810360008301526122f981611f18565b9050919050565b6000602082019050818103600083015261231981611f7e565b9050919050565b6000602082019050818103600083015261233981611fbe565b9050919050565b6000602082019050818103600083015261235981612024565b9050919050565b600060208201905081810360008301526123798161208a565b9050919050565b600060208201905061239560008301846120ca565b92915050565b60006020820190506123b060008301846120d9565b92915050565b600081519050919050565b600082825260208201905092915050565b60006123dd8261249a565b91506123e88361249a565b9250827fffffffffffffffffffffffffffffffffffffffffffffffffffffffffffffffff0382111561241d5761241c612516565b5b828201905092915050565b60006124338261249a565b915061243e8361249a565b92508282101561245157612450612516565b5b828203905092915050565b60006124678261247a565b9050919050565b60008115159050919050565b600073ffffffffffffffffffffffffffffffffffffffff82169050919050565b6000819050919050565b600060ff82169050919050565b60005b838110156124cf5780820151818401526020810190506124b4565b838111156124de576000848401525b50505050565b600060028204905060018216806124fc57607f821691505b602082108114156125105761250f612545565b5b50919050565b7f4e487b7100000000000000000000000000000000000000000000000000000000600052601160045260246000fd5b7f4e487b7100000000000000000000000000000000000000000000000000000000600052602260045260246000fd5b6000601f19601f8301169050919050565b61258e8161245c565b811461259957600080fd5b50565b6125a58161249a565b81146125b057600080fd5b5056fea26469706673582212205f9daa6f24cb4ac12c4a705bde04839baa8833c7093e32fb3a09f929f1495c5564736f6c63430008000033",
  "immutableReferences": {},
  "source": "// SPDX-License-Identifier: MIT\r\npragma solidity 0.8.0;\r\n\r\nimport \"@openzeppelin/contracts/token/ERC20/ERC20.sol\";\r\nimport \"@openzeppelin/contracts/token/ERC20/IERC20.sol\";\r\nimport \"@openzeppelin/contracts/token/ERC20/extensions/ERC20Burnable.sol\";\r\nimport \"@openzeppelin/contracts/access/Ownable.sol\";\r\nimport \"@chainlink/contracts/src/v0.8/interfaces/AggregatorV3Interface.sol\";\r\nimport \"./AdminProtocol.sol\";\r\n\r\ncontract UCPToken is ERC20, Ownable, ERC20Burnable {\r\n\r\n    ERC20 private USDT;    \r\n    address private CONTRACT_PROTOCOL;\r\n\r\n    mapping(address => bool) contractAllowedToMint;\r\n    mapping(address => uint) amountAllowedToMint;\r\n\r\n    constructor(address _USDT) ERC20(\"Cashback\", \"UCP\") {\r\n        USDT = ERC20(_USDT);     \r\n        _mint(msg.sender, 1000000000000000000000000000);\r\n    }\r\n\r\n    function mintToken(uint256 _amount) external virtual returns(bool){\r\n        require(contractAllowedToMint[msg.sender] == true, \"Must be allowed to mint\");\r\n        require(amountAllowedToMint[msg.sender] == _amount, \"Can't exceed amount allowed to mint\");\r\n        //Reset amount allowed to mint        \r\n        amountAllowedToMint[msg.sender] = 0;   \r\n        _mint(msg.sender, _amount);\r\n        return true;\r\n    } \r\n\r\n    function setContractProtocol(address _contractAddress) public onlyOwner returns(bool){\r\n        require(_contractAddress != address(0), \"Addres must be valid\");\r\n        CONTRACT_PROTOCOL = _contractAddress; \r\n        return true;\r\n    }\r\n\r\n    function setAddressAllowedToMint(address _contractAddress, uint256 _amount) external{\r\n        require(CONTRACT_PROTOCOL == msg.sender, \"Only the Contract Protocol can add Address\");\r\n        contractAllowedToMint[_contractAddress] = true;     \r\n        amountAllowedToMint[_contractAddress] = _amount;   \r\n    }\r\n\r\n    function getAmountAllowedToMintByAddress(address _account) public view returns(uint){\r\n        require(contractAllowedToMint[_account], \"Account is not allowed to mint\");\r\n        return(amountAllowedToMint[_account]);\r\n    }\r\n\r\n    function getAddressAllowToMint(address _contractAddress) public view returns(bool){        \r\n        contractAllowedToMint[_contractAddress];\r\n        return true;\r\n    }  \r\n}",
  "sourcePath": "C:/Users/Gilberts/Desktop/eth/cashback/universal-cashback-protocol/contracts/UCPToken.sol",
  "compiler": {
    "name": "solc",
    "version": "0.8.0+commit.c7dfd78e.Emscripten.clang"
  },
  "schemaVersion": "3.3.4",
  "updatedAt": "2021-11-23T18:37:52.759Z",
  "devdoc": {
    "kind": "dev",
    "methods": {
      "allowance(address,address)": {
        "details": "See {IERC20-allowance}."
      },
      "approve(address,uint256)": {
        "details": "See {IERC20-approve}. Requirements: - `spender` cannot be the zero address."
      },
      "balanceOf(address)": {
        "details": "See {IERC20-balanceOf}."
      },
      "burn(uint256)": {
        "details": "Destroys `amount` tokens from the caller. See {ERC20-_burn}."
      },
      "burnFrom(address,uint256)": {
        "details": "Destroys `amount` tokens from `account`, deducting from the caller's allowance. See {ERC20-_burn} and {ERC20-allowance}. Requirements: - the caller must have allowance for ``accounts``'s tokens of at least `amount`."
      },
      "decimals()": {
        "details": "Returns the number of decimals used to get its user representation. For example, if `decimals` equals `2`, a balance of `505` tokens should be displayed to a user as `5.05` (`505 / 10 ** 2`). Tokens usually opt for a value of 18, imitating the relationship between Ether and Wei. This is the value {ERC20} uses, unless this function is overridden; NOTE: This information is only used for _display_ purposes: it in no way affects any of the arithmetic of the contract, including {IERC20-balanceOf} and {IERC20-transfer}."
      },
      "decreaseAllowance(address,uint256)": {
        "details": "Atomically decreases the allowance granted to `spender` by the caller. This is an alternative to {approve} that can be used as a mitigation for problems described in {IERC20-approve}. Emits an {Approval} event indicating the updated allowance. Requirements: - `spender` cannot be the zero address. - `spender` must have allowance for the caller of at least `subtractedValue`."
      },
      "increaseAllowance(address,uint256)": {
        "details": "Atomically increases the allowance granted to `spender` by the caller. This is an alternative to {approve} that can be used as a mitigation for problems described in {IERC20-approve}. Emits an {Approval} event indicating the updated allowance. Requirements: - `spender` cannot be the zero address."
      },
      "name()": {
        "details": "Returns the name of the token."
      },
      "owner()": {
        "details": "Returns the address of the current owner."
      },
      "renounceOwnership()": {
        "details": "Leaves the contract without owner. It will not be possible to call `onlyOwner` functions anymore. Can only be called by the current owner. NOTE: Renouncing ownership will leave the contract without an owner, thereby removing any functionality that is only available to the owner."
      },
      "symbol()": {
        "details": "Returns the symbol of the token, usually a shorter version of the name."
      },
      "totalSupply()": {
        "details": "See {IERC20-totalSupply}."
      },
      "transfer(address,uint256)": {
        "details": "See {IERC20-transfer}. Requirements: - `recipient` cannot be the zero address. - the caller must have a balance of at least `amount`."
      },
      "transferFrom(address,address,uint256)": {
        "details": "See {IERC20-transferFrom}. Emits an {Approval} event indicating the updated allowance. This is not required by the EIP. See the note at the beginning of {ERC20}. Requirements: - `sender` and `recipient` cannot be the zero address. - `sender` must have a balance of at least `amount`. - the caller must have allowance for ``sender``'s tokens of at least `amount`."
      },
      "transferOwnership(address)": {
        "details": "Transfers ownership of the contract to a new account (`newOwner`). Can only be called by the current owner."
      }
    },
    "version": 1
  },
  "userdoc": {
    "kind": "user",
    "methods": {},
    "version": 1
  }
}